:020000040800F2
:10000000405D00205D02000815440008573A0008D2
:1000100011440008EB0A00082D5D000800000000F4
:100020000000000000000000000000009D0100082A
:10003000BB0E000800000000F90100084D50000848
:1000400077020008770200087702000877020008AC
:10005000770200087702000877020008770200089C
:10006000770200087702000877020008770200088C
:10007000770200087702000877020008770200087C
:10008000810D000877020008770200087702000857
:10009000F10A0008770200087702000877020008DA
:1000A00077020008995100087702000877020008DB
:1000B000770200087702000877020008770200083C
:1000C000770200087702000877020008770200082C
:1000D000770200087D5B00088D5B0008795C0008F2
:1000E000770200087702000877020008770200080C
:1000F00077020008770200087702000877020008FC
:1001000077020008770200087702000877020008EB
:1001100077020008770200087702000877020008DB
:10012000910D000877020008A10D00087702000871
:1001300077020008770200087702000877020008BB
:10014000010B000877020008770200087702000818
:10015000770200087702000877020008770200089B
:10016000770200087702000877020008770200088B
:1001700077020008770200087702000800000000FC
:100180007702000877020008DFF80CD000F070FC5E
:1001900000480047397C0008405D00202C4B19685E
:1001A0000868B0E8F04F80F30988BFF36F8F4FF015
:1001B000000080F3118870470000000008480068C4
:1001C000006880F308884FF0000080F3148862B65E
:1001D00061B6BFF34F8FBFF36F8F00DF00BF00BF6B
:1001E00008ED00E0DFF80C00016841F470010160E7
:1001F000704700BF88ED00E0EFF30980BFF36F8F19
:10020000134B1A681EF0100F08BF20ED108A20E96A
:10021000F04F106009B44FF0500080F31188BFF325
:100220004F8FBFF36F8F08F06BFE4FF0000080F32D
:10023000118809BC19680868B0E8F04F1EF0100F6B
:1002400008BFB0EC108A80F30988BFF36F8F704746
:1002500020000020EFF3058070470000064880472B
:1002600006480047FEE7FEE7FEE7FEE7FEE7FEE79B
:10027000FEE7FEE7FEE7FEE73551000889010008CA
:10028000DFED190AB5EEC00A60EE200ABDEEE01AF5
:1002900011EE100AF1EE10FA38BF401E00EE100AFF
:1002A0001349F7EE001AB8EEC00A30EEC00ADFEDCF
:1002B0000F0A60EE200ABCEEE00A10EE100AC0F34E
:1002C000080000EE100A01EB8000B8EE400A90ED45
:1002D000011A70EEC00A90ED000A71EEE01A21EEEC
:1002E000800A00EE810A704783F9223E0000004434
:1002F000049D00082DE9F05F0546002092469B46CC
:1003000088460646814640241BE02846414647462B
:10031000224600F03AFA53465A46C01A914110D389
:1003200011461846224600F021FA2D1A67EB010803
:100330004F4622460120002100F018FA17EB000971
:100340004E41201EA4F10104DFDC484631462A4616
:100350004346BDE8F09F40EA01039B0703D009E054
:1003600008C9121F08C0042AFAD203E011F8013BA1
:1003700000F8013B521EF9D27047D2B201E000F8FA
:10038000012B491EFBD270470022F6E710B5134639
:100390000A4604461946FFF7F0FF204610BD2DE936
:1003A000FE4F804681EA0300C00F0C46009021F00A
:1003B000004123F00045B8EB0200A94105D24046B8
:1003C000214690461C460B46024623F0004010434F
:1003D00047D0270DC7F30A00C3F30A510290401A11
:1003E000019040286BDAC3F3130040F4801B00989F
:1003F000924620B10023D2EB030A63EB0B0B01986A
:100400005946C0F14002504600F0B0F906460D468C
:1004100050465946019A00F0C8F910EB08006141B6
:10042000002487EA115284EAE7731A4340D0009A05
:1004300062B3019A012A4FEA075215DC001B61EBF7
:1004400002014FF0004202EA0752CDE90042001CCF
:1004500041F5801132462B4600F0FFF903B0BDE8AC
:10046000F08F40462146F9E7001B61EB0201001CBA
:1004700041F5801300185B412018A2F5001747EBE7
:10048000030140EAD570B6196D4111E06D084FEADD
:10049000360645EAC0754FEA0752001B61EB0201C0
:1004A000001C41F5801149084FEA30000019514104
:1004B00032462B4603B0BDE8F04F00F0BFB90098BC
:1004C000012240000023D0EB020263EBE0730098AE
:1004D00021464FEAE074B8EB000061EB0401E9E764
:1004E00083F000435BE781F0004158E72DE9FE4FC0
:1004F00081EA030404F0004421F0004100944FF02D
:10050000000B23F0004350EA01045ED052EA0304DA
:100510005BD0C3F30A54C1F30A552C44A4F2F3345C
:100520000194A0FB0254C1F3130141F48011C3F301
:10053000130343F4801301FB024400FB034E840ABF
:10054000970A44EA815447EA8357A4FB0768029557
:100550008D0A05FB07854FEA932C04FB0C542705F5
:10056000029D4FEA065847EA1637B5EB08056EEBD1
:10057000070C870E920E47EA811742EA8312A7FB07
:100580000201B6EB0B0164EB00042B0D43EA0C33C4
:100590005E1844EB1C50DA465146E7FB0201C5F3F6
:1005A00013044FEA0B3343EA14534FEA0432019C1D
:1005B00043EA0603A4F10C040294009CCDE900B4C4
:1005C00000F04BF903B0BDE8F08F00200146F9E7D9
:1005D0002DE9F04D81EA030404F0004B21F00045C1
:1005E00014464FF0000A23F0004150EA050220D0E3
:1005F00054EA01021DD0C5F30A570246C5F313039E
:10060000C1F31300C1F30A5640F4801543F480137C
:10061000A7EB0608101BD64608F2FD3873EB050061
:1006200002D308F1010801E092185B41B8F1000F14
:1006300003DA00200146BDE8F08D00204FF4801160
:10064000064684460EE0171B73EB050705D3121B05
:1006500063EB050306434CEA010C49084FEA3000FE
:1006600092185B4150EA0107EDD152EA030012D023
:1006700082EA040083EA0501084305D0101BAB4160
:1006800006D20122002306E000224FF0004302E0E0
:100690006FF0010253101AEB06004CEB085110EBFF
:1006A0000A0041EB0B01BDE8F04D00F0C7B800F0C7
:1006B000004230F000400AD0C10D01F56071C0F376
:1006C000160042EA0151C20840071143704700205A
:1006D0000146704730B5041E71F1000404DB4FF091
:1006E0000044404264EB0101141E73F1000405DB79
:1006F0001C464FF00043524263EB04038B4208BF99
:10070000824230BD30B5041E71F1000404DB4FF0AD
:100710000044404264EB0101141E73F1000405DB48
:100720001C464FF00043524263EB0403994208BF5A
:10073000904230BD01F0004330B421F0004150EA56
:10074000010206D00A0DA2F56072C1F31301002A5E
:1007500002DC30BC00207047440F44EAC104C100F1
:10076000E01830BC00EBC25000F031B8202A04DBA6
:10077000203A00FA02F1002070479140C2F12003B4
:1007800020FA03F3194390407047202A04DB203AF3
:1007900021FA02F00021704721FA02F3D040C2F1A1
:1007A00020029140084319467047202A06DBCB17E8
:1007B000203A41FA02F043EAE07306E041FA02F31C
:1007C000D040C2F1200291400843194670470029E9
:1007D000A8BF7047401C490008BF20F001007047C7
:1007E00010B4B0FA80FC00FA0CF050EA010404BF27
:1007F00010BC704749B1CCF1200421FA04F411FA7D
:100800000CF118BF012121430843A3EB0C01CB1DC0
:100810004FEA00614FEA102042BF002010BC704731
:1008200000EBC35010440029A4BF10BC7047401C0B
:10083000490008BF20F0010010BC704710B5141E1D
:1008400073F1000408DA401C41F1000192185B4189
:100850001A4301D120F0010010BD2DE9F04D924660
:100860009B4611B1B1FA81F202E0B0FA80F2203277
:100870009046FFF77BFF04460F4640EA0A0041EA34
:100880000B0153465A46084313D0114653EA010060
:1008900019D0C8F140025046FFF777FF05460E46D3
:1008A000504659464246FFF761FF084305D00120F4
:1008B00004E020463946BDE8F08D0020054346EAB5
:1008C000E0762C4337430A986305E40AA0EB08005E
:1008D0000022FD0A44EA47540A3002D500200146AE
:1008E000E9E7010510196941DDE908450019694189
:1008F000BDE8F04DA2E770B521F0004303430CD0F2
:10090000C1F30A550024D5EB040564EB0403D617A4
:10091000AD1AB34102DB0020014670BD201841EB47
:10092000025170BD2DE9F04D00231A461B1A8A4171
:1009300003DB00200146BDE8F08DC1F30A52C1F38C
:10094000130141F480154FF0000BD10702D10018BC
:100950006D41521E0027044640F2FF11384601EB5C
:10096000620A3E468046024600204FF48011FFF79F
:100970000CFFC2197141BB1846EB0100B4EB030C2C
:1009800075EB000C04D3E41A65EB000517460E4620
:10099000241908F101006D4180463428E3DDF9197E
:1009A00046EB0600091BA84103D24FF0FF32134665
:1009B00001E0002213461BEB070046EB0A51BDE89D
:1009C000F04DFFF73BBF2DE9FE4FC3F30A5701F08F
:1009D00000450024C1F30A56C3F31303C1F3130106
:1009E00043F4801312EB020AA64641F480110095ED
:1009F00043EB030CA7F1010B16E0B0EB0A0061EB2F
:100A00000C01071E71F1000707DA4FF00008D0EB68
:100A1000080085F0004568EB0101171A73EB010728
:100A2000EBD3761E001849415E45F6DA50EA010222
:100A300009D0CDE900E5002213460296FFF70DFF2D
:100A400003B0BDE8F08F20460099F9E70EB5C10F5D
:100A500080EAE0700844CA07002140F233438DE881
:100A60000E000A460B46FFF7F8FE03B000BD00007B
:100A7000064C074D06E0E06840F0010394E80700EB
:100A800098471034AC42F6D3FFF782FB80A60008EB
:100A9000A0A6000870B58C1810F8015B15F00703CC
:100AA00001D110F8013B2A1106D110F8012B03E007
:100AB00010F8016B01F8016B5B1EF9D12B0705D40F
:100AC0000023521E0DD401F8013BFAE710F8013B58
:100AD000CB1A921C03E013F8015B01F8015B521E74
:100AE000F9D5A142D8D3002070BD00BFFEE70000B9
:100AF00010B5024800F0BBFE10BD0000E455002018
:100B000010B5024800F0B3FE10BD00000C560020E6
:100B100070B52DED0E8BB0EE408AF0EE608AB0EE2F
:100B2000419A04460D4618EE900AFFF7C0FD41ECCD
:100B30001E0B9FED2E1BB0EE4E0AF0EE6E0A05F076
:100B4000DBFDB0EE40CAF0EE60CA18EE100AFFF707
:100B5000AEFD41EC1E0B9FED251BB0EE4E0AF0EEF4
:100B60006E0A05F0C9FDB0EE40DAF0EE60DA53EC43
:100B70001C2B51EC1D0BFFF712FC41EC1B0B9FEDE6
:100B80001D1BB0EE4B0AF0EE6B0A05F0B5FDB0EEA2
:100B900040AAF0EE60AA51EC1A0BFFF7CBFD2060E3
:100BA00018EE900AFFF783FD41EC1B0B29EE080AB3
:100BB00010EE101A0846FFF77AFD41EC1C0BB0EE60
:100BC0004B1AF0EE6B1AB0EE4C0AF0EE6C0A05F020
:100BD0000FFCB0EE40AAF0EE60AA51EC1A0BFFF742
:100BE000A9FD2860BDEC0E8B70BD00000000000068
:100BF00000000040000000000000E03F10B52DEDB7
:100C0000028B0446B0EE408A94ED0A1AF0EE410AD7
:100C100094ED091AB0EE410A04F11C0104F12C0014
:100C2000B0EE481AFFF774FF04F1200104F12C0024
:100C300000F006FBBDEC028B10BD000010B52DEDE1
:100C4000028BF0EE408AB0EE608A9FED390A30EEFA
:100C5000680A30EE480A374880ED000A9FED360AF0
:100C6000F0EE000A00EEC80AD0ED000A30EE600A8D
:100C7000324880ED000A90ED000ADFED2D0A30EEDB
:100C8000C00AB1EE400A2E4880ED000A294890EDD6
:100C9000000ADFED270A30EEC00AB1EE400A28480C
:100CA00080ED010A254890ED000ADFED210A30EEC3
:100CB000C00A234880ED020A1E4890ED000ADFEDCD
:100CC0001C0A30EEC00A1E4880ED030A1B4890ED56
:100CD000000ADFED170A30EEC00A194880ED040A59
:100CE000144890ED000ADFED120A30EEC00A1448F5
:100CF00080ED050A114890ED000ADFED0D0A30EE97
:100D0000C00AB1EE400A0E4880ED060A094890ED8F
:100D1000000ADFED070A30EEC00AB1EE400A0848CB
:100D200080ED070A03F0B6F8BDEC028B10BD0000A1
:100D3000DB0FC93FFC030020DB0F4940F803002014
:100D40000455002070B52DED048B0446F0EE408A6A
:100D50000D46B0EE609AB0EE418AF0EE490A2846A0
:100D6000B0EE680A03F06CFFB0EE480A2846FFF7C1
:100D700045FF2146284604F0ADFBBDEC048B70BD59
:100D800010B5024801F0BAF910BD00002C57002040
:100D900010B5024801F0B2F910BD0000D457002090
:100DA00010B5024801F0AAF910BD00005C04002053
:100DB0000146087810381823B0FBF3F20848805C2D
:100DC000C865032A05D908686FF30900001D886506
:100DD00003E008686FF309008865886D70470000BC
:100DE000CC9C0008014600208A6A8B69CBB932B1DD
:100DF000012A0DD0022A03D0032A10D10EE000BF31
:100E0000CB6A03F08073B3F1807F00D1012007E04B
:100E1000CB6AB3F1C07F00D1012001E000E000BF48
:100E200034E08B69B3F5005F1AD132B1012A07D0E3
:100E3000022A03D0032A11D10AE000BF01200EE0EC
:100E4000CB6A03F08073B3F1807F00D1012006E00C
:100E5000CB6AB3F1C07F00D1012000E000BF15E0F4
:100E600032B1012A05D0022A04D0032A0CD103E0B2
:100E700000BF00BF012008E0CB6A03F08073B3F12C
:100E8000807F00D1012000E000BF00BF704730B577
:100E90000468246824F4802405682C600468636076
:100EA0008468402C04D10468A2600468E16003E017
:100EB0000468A1600468E26030BD704710B5044664
:100EC00008F0BEFC04EB0411014A1144086010BD97
:100ED000484F002070B504460D4608F0B1FC04EB05
:100EE0000411044A1144086004EB0410114608443C
:100EF000856070BD484F00204FF4E16007F0BCFEF4
:100F000061E031480068401C2F490860002455E02A
:100F100008F096FC04EB04112C4A1144096888423D
:100F200007D208F08DFC401E04EB0411274A11443F
:100F3000086008F085FC04EB0411244A1144096898
:100F4000401A04EB04111144486004EB04101146EC
:100F50000844406804EB041111448968884220D990
:100F600004EB041011460844D0F80D00401C04EBBB
:100F700004111144C1F80D0004EB0410114608449B
:100F8000D0F80D00B0F5FA7F16D9002004EB04115B
:100F90001144C1F80D00012004EB04111144087341
:100FA0000AE0002004EB0411084A1144C1F80D00C6
:100FB00004EB041111440873601CC4B2062CA7DBB7
:100FC000022007F059FE9CE7CC000020484F00208B
:100FD000014601EB0110044A1044007B012800D1B6
:100FE00070470020FCE70000484F002070470000D9
:100FF00010B52DED088BB0EE000AF0EE408AB7EE8A
:10100000000AB0EE409AB7EE080AF0EE409A9FED63
:101010007C0AB0EE40AA9FED7B0AF0EE40AA9FED5D
:101020007A0AB0EE40BA08F00BFC00EE100AB8EEF7
:10103000400ADFED760A80EE201A754890ED000A2E
:1010400031EE400AB0EE408AB0EE000AB4EEC08A3B
:10105000F1EE10FA41D29FED6F0A6F4880ED090A58
:101060009FED670A80ED0A0AB7EE000AFFF7C6FD9A
:101070009FED6A0A6A4880ED000A9FED680A80EDDC
:10108000020A9FED680A684880ED000A9FED630A36
:1010900080ED020A0146624802F0F4FF634807F05F
:1010A000C7FB5D48D0ED070A20EE200A80ED070A55
:1010B0005E4807F0BDFB5848D0ED080A20EE200A34
:1010C00080ED080A90ED081AF0EE410A90ED071A3B
:1010D000B0EE410AFFF7B2FD8FE0B0EE000AB4EEC9
:1010E000C08AF1EE10FA35DBB0EE080AB4EEC08A21
:1010F000F1EE10FA2ED29FED470A474880ED090A1B
:101100009FED400A80ED0A0AB7EE000AFFF776FD70
:101110009FED470A424880ED000A9FED400A80EDAE
:10112000020A9FED440A404880ED000A9FED3B0A09
:1011300080ED020A01463A4802F0A4FF364890EDDD
:10114000081AF0EE410A90ED071AB0EE410AFFF7D7
:1011500075FD52E0B0EE080AB4EEC08AF1EE10FA66
:1011600048DBB1EE020AB4EEC08AF1EE10FA41D2C9
:101170009FED280A284880ED090A9FED230A80ED9B
:101180000A0AB7EE000AFFF739FD9FED240A24484A
:1011900080ED000A9FED210A80ED020A9FED210AF1
:1011A000214880ED000A9FED1D0A80ED020A0146EC
:1011B0001B4802F067FF204807F03AFB1648D0EDC5
:1011C000070A20EE200A80ED070A1B4807F030FBD3
:1011D0001148D0ED080A20EE200A80ED080A90EDB3
:1011E000081AF0EE410A90ED071AB0EE410AFFF737
:1011F00025FD02E0002011490870BDEC088B10BDF0
:101200008FC2F53DB81E853E8FC2753E00007A4400
:101210000C04002000000000D45400200000C8424C
:10122000DC00002000001643E800002024550020C8
:101230000000484300009643385500201401002068
:1012400030B52DED108B83B005460C4695ED000AA8
:10125000DFED400A20EE200A10EE101A0846FFF7D4
:1012600026FA41EC190B9FED3C1B9FED3D0B05F061
:1012700043FAB0EE40BAF0EE60BA95ED000A10EE17
:10128000101A0846FFF713FA41EC1F0B9FED321BB3
:10129000B0EE4F0AF0EE6F0A05F02EFAB0EE40DA2B
:1012A000F0EE60DA9FED2C1B9FED2F0B05F024FA7A
:1012B000B0EE40EAF0EE60EA53EC1D2B51EC1E0B51
:1012C000FFF76DF841EC1C0B53EC1B2BFFF708F9F3
:1012D00041EC1A0B53EC192BFFF77AF9CDE9000119
:1012E0009DED000B51EC100BFFF724FA08EE100AED
:1012F000BFEE000AB4EEC08AF1EE10FA04D29FED00
:101300001C0A84ED000A20E0B7EE000AB4EEC08AA1
:10131000F1EE10FA04DD9FED170A84ED000A14E0E7
:1013200018EE100AFFF7C3F941EC1A0BB0EE4A0AA7
:10133000F0EE6A0A04F044FDB0EE409AF0EE609AD6
:1013400051EC190BFFF7F6F9206003B0BDEC108BE0
:1013500030BD0000AE47613E0000000000000040CC
:1013600000000080EB51C83F000000C0F528BC3FE2
:10137000DB0F4940000000000A784B7842EA032264
:10138000C2F30A0202804A78D2108B7842EA4312F2
:10139000C2F30A0242808A789211CB7842EA830231
:1013A0000B7942EA8322C2F30A0282800A79521040
:1013B0004B7942EAC312C2F30A02C2804A79C2F3ED
:1013C000011282724A7912119308C3728A79CB7919
:1013D00042EA032212B282810A7A4B7A42EA03225B
:1013E00013B200F10C02C3818A7ACB7A42EA03225B
:1013F00013B200F10C0203820B7B83744B7BC3742A
:101400008A7BCB7B42EA032282820A7C4B7C42EAC3
:10141000032212B202810288A2F5806212B2028017
:101420004288A2F5806212B242808288A2F5806270
:1014300012B28280C288A2F5806212B2C280028992
:10144000A2F5806212B20281704710B5024692F88E
:101450002030012B01D0022B06D1106840690843CF
:1014600014686061002010BD506A40F48020506212
:101470000120F8E7F0B504460D461E4694F82070AA
:1014800020688368A86800B900E000BF012F01D080
:10149000022F7CD103F0806030B903F0006018B9EE
:1014A00003F08050002873D0C3F30161022905D9ED
:1014B000606A40F4000060620120F0BD01208840B5
:1014C0003060A86860B9B5F800C0E86840EA4C5CD4
:1014D000206800F5C07000EB0110C0F800C00FE0FC
:1014E000D5E901C040EACC00D5F80CC040EA0C00B8
:1014F000D4F800C00CF5C07C0CEB011CCCF800004B
:10150000D5F810C0206800F5C07000EB0110C0F8DD
:1015100004C0287D01280ED1206800F5C07000EBC2
:101520000110406840F4807C206800F5C07000EB3A
:101530000110C0F804C0D079000692F806C040EA55
:101540000C4092F805C040EA0C2C10794CEA000CD3
:10155000206800F5C07000EB0110C0F80CC0D07816
:10156000000692F802C040EA0C4092F801C040EA3E
:101570000C2092F800C040EA0C00D4F800C00CF532
:10158000C07C0CEB011CCCF80800206801E016E0E0
:101590000FE000F5C07000EB0110006840F0010C96
:1015A000206800F5C07000EB0110C0F800C00020FA
:1015B00083E7606A40F40010606201207DE7606AA2
:1015C00040F480206062012077E70000F0B5044617
:1015D0000A46216894F82050012D01D0022D7ED1B9
:1015E000424901F50071086840F001000860086890
:1015F00020F47C5008600868566A40EA06200860BB
:10160000107D00F01F06012000FA06F3C869984318
:10161000C861A1F50071D069C8B9D1F80C0298432E
:10162000C1F80C02908880B2968940EA064601F51E
:101630001070576940F83760108880B2168940EA08
:10164000064601F51070576900EBC7004660D06987
:10165000012819D1D1F80C021843C1F80C02908866
:1016600080B2168840EA064601F51070576940F8C6
:101670003760908980B2168940EA064601F51070FD
:10168000576900EBC7004660906928B9D1F8040299
:101690009843C1F8040204E0D1F804021843C1F8E9
:1016A0000402106928B9D1F814029843C1F8140251
:1016B00004E0D1F814021843C1F81402106A01289A
:1016C00004D1D1F81C021843C1F81C02D1F8000261
:1016D00020F00100C1F800020020F0BDFFE7606AC1
:1016E00040F4802060620120F7E7000000640040C1
:1016F000704770B5044694F82050012D01D0022D9A
:101700007CD151B92068C06800F0030080B9606ADC
:1017100040F400106062012070BD2068006900F094
:10172000030028B9606A40F4001060620120F3E70A
:10173000206800F5D87000EB0110006800F004008C
:101740009060906840B9206800F5D87000EB0110F7
:101750000068400D106007E0206800F5D87000EBCD
:1017600001100068C0085060206800F5D87000EBD8
:101770000110006800F002004008D060206800F509
:10178000D87000EB0110406800F00F001061206875
:1017900000F5D87000EB0110406800F47F40000AAB
:1017A0009061206800F5D87000EB01104068000CD3
:1017B0005061206800F5D87000EB01108068187047
:1017C000206800F5D87000EB0110806800F47F40BD
:1017D000000A5870206800F5D87000EB011080688E
:1017E00000F47F00000C9870206800F5D87000EBC2
:1017F00001108068000ED870206800E031E000F52C
:10180000D87000EB0110C0681871206800F5D8701E
:1018100000EB0110C06800F47F40000A5871206896
:1018200000F5D87000EB0110C06800F47F00000CD8
:101830009871206800F5D87000EB0110C068000EA8
:10184000D87131B92068C06840F020002668F06087
:1018500005E02068006940F0200026683061002023
:101860005AE7606A40F480206062012054E72DE965
:10187000F05F04460025206846692068D0F804908F
:10188000206887682068D0F80CA02068D0F810B0D5
:101890002068D0F8188006F00100002855D007F025
:1018A0000100C0B101202168886007F0020018B172
:1018B000204600F008FC0EE007F0040010B145F4EB
:1018C000006508E007F0080010B145F4805502E01B
:1018D000204600F0F7FB07F48070C8B14FF4807029
:1018E0002168886007F4007018B1204600F0EDFB15
:1018F0000EE007F4806010B145F4005508E007F4ED
:10190000006010B145F4804502E0204600F0DCFBA9
:1019100007F48030C8B14FF480302168886007F444
:10192000003018B1204600F0D2FB0EE007F4802012
:1019300010B145F4004508E007F4002010B145F46B
:10194000803502E0204600F0C1FB06F0080038B107
:101950000AF0100020B145F4007510202168C8601D
:1019600006F0040040B10AF0080028B10820216800
:10197000C860204600F00EFA06F0020038B1206878
:10198000C06800F0030010B1204600F005FA06F030
:10199000400038B10BF0100020B145F480651020F4
:1019A0002168086106F0200040B10BF0080028B162
:1019B000082021680861204600F052FB06F0100064
:1019C00038B12068006900F0030010B1204600F033
:1019D00048FB06F4003040B109F0100028B1102097
:1019E00021684860204600F03DFB06F4803040B19D
:1019F00009F0080028B1082021684860204600F05E
:101A000067FB06F4004088B309F0040078B306F4DD
:101A1000807020B108F0010008B145F0010506F41E
:101A2000007020B108F0020008B145F0020506F48C
:101A3000806020B108F0040008B145F0040506F408
:101A40000060A0B108F0700088B108F07000402874
:101A500017D006DC10280BD020280CD0302819D144
:101A60000CE0502810D0602814D110E01DE019E0DF
:101A700045F008050FE045F010050CE045F02005A5
:101A800009E045F0400506E045F0800503E045F437
:101A9000807500E000BF00BF2068806920F0700002
:101AA000216888610420216848602DB1606A28435C
:101AB00060622046FFF71CFEBDE8F09F70B504464B
:101AC0000CB9012070BD94F8200010B9204600F038
:101AD000AFF82068006820F002002168086000F07C
:101AE000F3FD05460DE000F0EFFD401B0A2808D984
:101AF000606A40F400306062052084F82000012014
:101B0000E0E72068406800F002000028EBD1206880
:101B1000006840F001002168086000F0D5FD05462E
:101B20000DE000F0D1FD401B0A2808D9606A40F49E
:101B300000306062052084F820000120C2E72068A0
:101B4000406800F001000028EBD0207E012806D17B
:101B50002068006840F080002168086005E0206887
:101B6000006820F0800021680860607E012806D1AE
:101B70002068006840F040002168086005E02068A7
:101B8000006820F0400021680860A07E012806D18E
:101B90002068006840F020002168086005E02068A7
:101BA000006820F0200021680860E07E012806D14E
:101BB0002068006820F010002168086005E02068B7
:101BC000006840F0100021680860207F012806D1DD
:101BD0002068006840F008002168086005E020687F
:101BE000006820F0080021680860607F012806D1A5
:101BF0002068006840F004002168086005E0206863
:101C0000006820F0040021680860D4E9020108435C
:101C100021690843616908436168491E08432168D6
:101C2000C86100206062012084F82000002049E79C
:101C300010B586B00446142101A8FEF7A5FB4F4954
:101C40002068884241D14E480068401C4C490860D9
:101C50000846006801280FD100BF002000904948C5
:101C6000006840F00070474908600846006800F0CE
:101C70000070009000BF00BF00BF002000904148EE
:101C80001038006840F008003E49103908600846E6
:101C9000006800F00800009000BF00BF0320019022
:101CA0000220029000200390032004900920059058
:101CB00001A9354800F008FC00220521142000F09D
:101CC000B3FD142000F0A0FD55E0304920688842A3
:101CD00051D100BF002000902A48006840F0806089
:101CE000284908600846006800F08060009000BF46
:101CF00000BF23480068401C21490860084600686E
:101D000001280FD100BF002000901E48006840F05D
:101D100000701C4908600846006800F000700090E0
:101D200000BF00BF00BF00200090164810380068B8
:101D300040F002001349103908600846006800F0BE
:101D40000200009000BF00BF4FF4825001900220BB
:101D5000029000200390032004900920059001A91F
:101D60000B4800F0B1FB00220521402000F05CFD93
:101D7000402000F049FD06B010BD000000640040A6
:101D80000C00002040380240000C02400068004077
:101D9000000402407047000010B504469748844292
:101DA00028D1974B974A0021FFF7A3FC954800687C
:101DB000A0F2012008281BD2DFE800F00405060786
:101DC00008090A0B00BF00BF00BF00BF00BF00BF73
:101DD00000BF8C480078401E8B490870097801EBE1
:101DE00041018A4A02EBC100854905F039FD00E056
:101DF00000BF01E186488442FBD1864B864A002120
:101E0000FFF777FC8448006865287CD10120FFF744
:101E100055F8804840787F49097840EA012000B2AF
:101E20007E4908807B48C0787A49897840EA012059
:101E300000B27B490880774840797649097940EAC1
:101E4000012000B2774908867248C07971498979C2
:101E500040EA012000B2734948867048B0F900009A
:101E600000EE100AB8EEC00AB1EE400ADFED6E0ACD
:101E700020EE200A084680ED000A6948B0F900000B
:101E800000EE100AB8EEC00ADFED670A20EE200A65
:101E9000084680ED010AB0F9300000EE100AB8EEF5
:101EA000C00ADFED620A80EE201A614880ED001A58
:101EB0000846B0F9320000EE100AB8EEC00ADFEDB5
:101EC0005B0A80EE201A5B4880ED001A58480068D3
:101ED000FEF7EDFB534AC2E90201104690ED021BEA
:101EE000B0EE410AF0EE610A9FED531B53EC112B4B
:101EF00051EC100BFEF7EEFB14D24A4890ED021B9A
:101F0000B0EE410A00E075E0F0EE610A9FED4C1B77
:101F100053EC112B51EC100BFEF741FA414AC2E988
:101F2000020121E03F4890ED021BB0EE410AF0EEC5
:101F3000610A9FED451B53EC112B51EC100BFEF782
:101F4000E1FB11D2374890ED021BB0EE410AF0EEF2
:101F5000610A9FED3B1B53EC112B51EC100BFEF76C
:101F6000BFFA304AC2E90201324890ED000A38480F
:101F7000D0ED000A30EE600ADFED360AB4EEE00A7A
:101F8000F1EE10FA05DD34480068401E3249086061
:101F900013E0284890ED000A2D48D0ED000A30EEFD
:101FA000600ADFED2E0AB4EEE00AF1EE10FA04D278
:101FB00029480068401C28490860274800684FF4F9
:101FC000B472504300EE100AB8EEC00A1948D0EDC2
:101FD000000A30EE200A10EE101A0846FEF767FBE2
:101FE000104AC2E90401134890ED000A184880ED38
:101FF000000A00E000BF00BF10BD0000E455002053
:102000009C0000209C560020AC000020884E002040
:102010000C560020A4000020D0560020B400002060
:10202000B6000020504E002029AE6A3D0000C84294
:10203000B8000020BC0000200000000000C072C0FA
:1020400000000000008076400000000000C07240E8
:10205000C00000200000A543B00000200000A5C380
:1020600070477047704770B5044694F82000012807
:1020700022D1022084F820002068006820F00100AE
:102080002168086000F020FB05460DE000F01CFB15
:10209000401B0A2808D9606A40F4003060620520BD
:1020A00084F82000012070BD2068406800F0010025
:1020B0000028EBD16062F6E7606A40F400206062BD
:1020C0000120F0E7704770477047704770477047CE
:1020D0007047014691F83500022803D080204865FA
:1020E00001207047052081F835000868006820F05D
:1020F00001000A6810600020F3E70000F8B504460C
:10210000002000908C4800684FF41651B0FBF1F7A6
:10211000A56D2E6894F85C1008208840304098B176
:102120002068006800F0040070B12068006820F0AA
:1021300004002168086094F85C1008208840A860BA
:10214000606D40F00100606594F85C1001208840EB
:10215000304068B12068406900F0800040B194F8D8
:102160005C1001208840A860606D40F0020060654E
:1021700094F85C1004208840304068B12068006802
:1021800000F0020040B194F85C1004208840A86080
:10219000606D40F00400606594F85C101020884089
:1021A000304078B32068006800F0080050B394F81D
:1021B0005C1010208840A8602068006800F480202F
:1021C00080B12068006800F4002028B9206CC8B1F4
:1021D0002046216C884715E0A06C98B12046A16C80
:1021E00088470FE02068006800F4807028B92068F4
:1021F000006820F0080021680860206C10B12046BB
:10220000216C884794F85C102020884030400028DA
:1022100065D02068006800F0100000285FD094F8B6
:102220005C1020208840A86094F83500052828D14B
:102230002068006820F01600216808602068406966
:1022400020F0800021684861206C08B9A06C28B19A
:102250002068006820F008002168086094F85C108D
:102260003F208840A86000BF002084F8340000BFF1
:10227000012084F83500206D10B12046216D88477B
:10228000F8BD2068006800F4802080B120680068F4
:1022900000F4002028B9606C10B12046616C8847BA
:1022A0001DE0E06BD8B12046E16B884717E020685D
:1022B000006800F4807068B92068006820F01000A1
:1022C0002168086000BF002084F8340000BF0120AE
:1022D00084F83500E06B10B12046E16B8847606DF3
:1022E00038B3606D00F00100F0B1052084F83500CE
:1022F0002068006820F001002168086000BF009895
:10230000401C0090B84200D905E02068006800F049
:1023100001000028F3D100BF00BF002084F8340082
:1023200000BF012084F83500E06C10B12046E16C5C
:10233000884700BFA4E700001C0000202DE9F04101
:102340000446002500F0C0F9074614B90120BDE895
:10235000F081606A00B100BF00BF002084F8340043
:1023600000BF022084F835002068006820F00100DA
:10237000216808600AE000F0A7F9C01B052805D90C
:1023800020206065032084F83500E0E720680068BD
:1023900000F001000028EED12068056821480540C2
:1023A000D4E901010843E1680843216908436169F0
:1023B0000843A1690843E1690843216A08430543CA
:1023C000606A042803D1D4E90B010843054320685F
:1023D00005602068456925F00705606A0543606A65
:1023E00004280DD1A06A0543E06A48B12046FEF7F3
:1023F000F9FC28B140206065012084F83500A6E78B
:10240000206845612046FEF7D3FC064694F85C1030
:102410003F208840B06000206065012084F83500CE
:10242000002094E73F8010F02DE9F04704460D4668
:1024300016461F464FF00008D4F8589000BF94F895
:102440003400012802D10220BDE8F087012084F881
:10245000340000BF94F8350001282BD1022084F805
:102460003500002060653B46324629462046FEF78F
:102470000EFD94F85C103F208840C9F808002068E1
:10248000006840F01600216808602068406940F04C
:10249000800021684861206C28B12068006840F005
:1024A0000800216808602068006840F00100216889
:1024B000086006E000BF002084F8340000BF4FF041
:1024C00002084046C0E70000F8B502460B4600256A
:1024D000002400200021DCE0012606FA01F51E6838
:1024E00006EA0504AC4273D15E68022E02D05E6833
:1024F000122E13D1CF0802F1200656F827004E07FE
:10250000F70E0F26BE40B0434F07FF0E1E69BE40B8
:102510003043CF0802F1200646F8270010684F002C
:102520000326BE40B0431E7906F003064F00BE40AE
:10253000304310605E68012E08D05E68022E05D020
:102540005E68112E02D05E68122E13D190684F0083
:102550000326BE40B0434F00DE68BE40304390606B
:10256000506801268E40B0431E79C6F300168E4097
:1025700030435060D0684F000326BE40B0434F0048
:102580009E68BE403043D0605E6806F08056B6F16B
:10259000805F7DD100BF00260096404E366846F42D
:1025A00080463E4F3E603E46366806F480460096C2
:1025B00000BF00BF3A4E8F0856F827008E07370F2E
:1025C0000F26BE40B043374EB24202D1002624E06F
:1025D0005EE0354EB24201D101261EE0334EB242DA
:1025E00001D1022619E0324EB24201D1032614E095
:1025F000304EB24201D104260FE02F4EB24201D13B
:1026000005260AE02D4EB24201D1062605E02C4EE9
:10261000B24201D1072600E008268F073F0FBE40D7
:1026200030431F4E8F0846F82700264E3068A043DF
:102630005E6806F48036B6F5803F00D12043214E17
:102640003060361D3068A0435E6806F40036B6F58B
:10265000003F00D120431B4E361D3060361D3068D0
:10266000A0435E6806F48016B6F5801F00D12043B3
:10267000144E08363060361D3068A0435E6806F49C
:102680000016B6F5001F00D120430E4E0C36306008
:10269000491C1029FFF420AFF8BD00004438024067
:1026A00008380140000002400004024000080240D7
:1026B000000C0240001002400014024000180240CA
:1026C000001C0240003C01400148006870470000C7
:1026D00010000020034800680349097808440149B4
:1026E00008607047100000201800002010B50D4849
:1026F000006840F400700B4908600846006840F428
:10270000806008600846006840F48070086003201C
:1027100000F0C8F8002000F007F800F04BF80020A7
:1027200010BD0000003C024070B588B00446002592
:10273000002600222146192000F076F8192000F02A
:1027400063F800BF002001901648006840F00100C7
:10275000144908600846006800F00100019000BFBD
:1027600000BF02A903A800F071F900F0A7F9450025
:102770000D48B5FBF0F0461E0C480D49086040F2CC
:10278000E7310B48C160466000210161816000F0C3
:1027900023FC20B9064800F06BFC08B070BD012096
:1027A000FBE700004438024040420F0000000140B7
:1027B0003C05002008B500BF0020009011480068CB
:1027C00040F480400F4908600846006800F48040EB
:1027D000009000BF00BF00BF00200090081F0068ED
:1027E00040F08050091F08600846006800F08050E3
:1027F000009000BF00BF00220F21901E00F014F8CF
:1028000008BD00004438024001460846002809DBA4
:1028100000F01F0301229A4043099B0003F1E023CB
:10282000C3F8002100BF70472DE9F05F80460D46D8
:102830001646002703F09CFA074639462A463346D7
:1028400001F00700C0F1070ABAF1040F02D94FF0F6
:10285000040A01E0C0F1070AD14600F1040ABAF106
:10286000070F02D24FF0000A01E0A0F1030AD4469C
:102870004FF0010A0AFA09FAAAF1010A0AEA020A61
:102880000AFA0CFA4FF0010B0BFA0CFBABF1010B3F
:102890000BEA030B4AEA0B042146404603F070FAA8
:1028A000BDE8F09F00BF00F00702064B19684FF625
:1028B000FF031940044B0B4343EA0221014B19600B
:1028C00000BF70470CED00E00000FA0570B504464B
:1028D0000D460CB9012070BD5848006800F00F008B
:1028E000A84209D255490D700846006800F00F0053
:1028F000A84201D00120EEE7207800F00200022873
:102900001DD1207800F00400042805D14C4800684F
:1029100040F4E0504A490860207800F00800082898
:1029200005D14748006840F4604045490860444884
:10293000006820F0F000A168084341490860207851
:1029400000F00100A8B36068012807D13C480838AE
:102950000068C0F34040B8B90120BCE760680228B5
:1029600002D06068032807D1354808380068C0F3F2
:10297000406048B90120AEE7314808380068C0F32C
:10298000400008B90120A6E72D48006820F00300A8
:10299000616808432A490860FFF796FE064609E089
:1029A000FFF792FE801B41F28831884202D9032052
:1029B00091E707E02248006800F00C006168B0EB86
:1029C000810FEDD11D48006800F00F00A84209D921
:1029D0001A490D700846006800F00F00A84201D0A7
:1029E000012078E7207800F00400042807D114487B
:1029F000006820F4E050E16808431149086020783D
:102A000000F00800082808D10D48006820F4604054
:102A1000216940EAC1000A49086000F05FF80849EE
:102A20000968C1F30311074A515CC84006490860B0
:102A30000020FFF779FE00204DE70000003C024037
:102A400008380240D49C00081C0000200F220260BD
:102A50000D4A126802F0030242600B4A126802F04B
:102A6000F0028260084A126802F4E052C260064A2C
:102A7000126802F46042D2080261044A126802F04D
:102A80000F020A607047000008380240003C024014
:102A900001480068704700001C00002000B5FFF7E7
:102AA000F7FF04490968C1F38221034A515CC84019
:102AB00000BD000008380240E49C000800B5FFF7A4
:102AC000E7FF04490968C1F34231034A515CC84039
:102AD00000BD000008380240E49C00082DE9F047E2
:102AE000002400250026A1462548006800F00C00BF
:102AF00020B1042805D008283AD105E0DFF88490F9
:102B000039E0DFF8849036E01D48001F006800F0CF
:102B10003F041B48001F006800F4800078B11A4889
:102B20001749091F0968C1F38811A0FB017001460C
:102B3000224600233846FDF7DDFB05460EE011482E
:102B40000F49091F0968C1F38811A0FB01700146F4
:102B5000224600233846FDF7CDFB05460848001FF6
:102B60000068C0F30140401C4600B5FBF6F902E0E6
:102B7000DFF8109000BF00BF4846BDE8F0870000B6
:102B8000083802400024F40000127A00F8B5044628
:102B90000CB90120F8BD207800F00100002874D0A5
:102BA000F948006800F00C0004280DD0F6480068D1
:102BB00000F00C00082813D1F348001F006800F44F
:102BC0008000B0F5800F0BD1EF4808380068C0F3E3
:102BD0004040002859D06068002856D10120D9E72C
:102BE00000BF6068B0F5803F08D1E748083800684A
:102BF00040F48030E449083908601EE06068B0F5B0
:102C0000A02F0DD1E0480838006840F48020DE494C
:102C1000083908600846006840F4803008600CE01D
:102C2000D9480838006820F48030D749083908604E
:102C30000846006820F48020086000BF606890B1FA
:102C4000FFF742FD054606E0FFF73EFD401B642806
:102C500001D903209EE7CC4808380068C0F3404003
:102C60000028F1D011E0FFF72FFD054606E0FFF741
:102C70002BFD401B642801D903208BE7C24808388C
:102C80000068C0F340400028F1D1207800F0020035
:102C900002285FD1BC48006800F00C0058B1BA4867
:102CA000006800F00C0008281CD1B748001F00681D
:102CB00000F48000B0B9B44808380068C0F34000A0
:102CC00020B1E068012801D0012063E7AE48083850
:102CD000006820F0F800216940EAC100AA490839DB
:102CE000086037E0E06800B30120A8490860FFF7FA
:102CF000EBFC054606E0FFF7E7FC401B022801D984
:102D0000032047E7A04808380068C0F340000028C7
:102D1000F1D09D480838006820F0F800216940EAA9
:102D2000C10099490839086014E0002097490860FB
:102D3000FFF7CAFC054606E0FFF7C6FC401B022869
:102D400001D9032026E7904808380068C0F3400006
:102D50000028F1D1207800F0080008282CD1606903
:102D6000A8B101208A490860FFF7AEFC054606E0DD
:102D7000FFF7AAFC401B022801D903200AE782487A
:102D80006C300068C0F340000028F1D014E000204F
:102D90007F490860FFF798FC054606E0FFF794FCC2
:102DA000401B022801D90320F4E677486C30006804
:102DB000C0F340000028F1D1207800F0040004287E
:102DC00070D1002670483830006800F0805090B90B
:102DD00000BF002000906C483830006840F0805000
:102DE0006949383108600846006800F0805000905A
:102DF00000BF00BF01266748006800F48070B0B9CA
:102E00006448006840F4807062490860FFF75CFC29
:102E1000054606E0FFF758FC401B022801D90320B5
:102E2000B8E65C48006800F480700028F2D000BF6B
:102E3000A068012808D154486830006840F00100BB
:102E40005149683108601DE0A06805280DD14E4841
:102E50006830006840F004004B496831086008465B
:102E6000006840F0010008600CE0474868300068E6
:102E700020F001004449683108600846006820F0ED
:102E80000400086000BFA068A8B1FFF71DFC05465C
:102E900009E0FFF719FC401B41F28831884202D952
:102EA000032077E626E0384868300068C0F3400029
:102EB0000028EED013E0FFF707FC054608E0FFF717
:102EC00003FC401B41F28831884201D9032061E6AE
:102ED0002D4868300068C0F340000028EFD1012E73
:102EE00007D129483830006820F080502649383111
:102EF000086000BFA069B8B32348006800F00C0068
:102F000008285ED0A069022846D100201F49086623
:102F1000FFF7DAFB054606E0FFF7D6FB401B022869
:102F200001D9032036E6184808380068C0F340602D
:102F30000028F1D1D4E907010843616A40EA811110
:102F40000122A06AC2EB500041EA00412C20005D42
:102F500041EA00600C49091F086001200B4908661E
:102F6000FFF7B2FB054607E02DE0FFF7ADFB401B86
:102F7000022801D903200DE6034808380068C0F391
:102F800040600028F1D01EE00838024000004742AF
:102F9000800E47420070004000200C490866FFF791
:102FA00093FB054606E0FFF78FFB401B022801D983
:102FB0000320EFE506480068C0F340600028F2D126
:102FC00001E00120E6E50020E4E5000000004742C2
:102FD000003802407047704710B504460CB9012014
:102FE00010BD94F83D0028B9002084F83C0020462C
:102FF00000F00CF8022084F83D00211D206802F04A
:10300000D3F8012084F83D000020E9E708B5154A0F
:10301000016891420FD100BF002100911249096857
:1030200041F02001104A11601146096801F02001A9
:10303000009100BF15E00D4A0168914211D100BF17
:10304000002100910849091D096841F48031064AB0
:10305000121D11601146096801F48031009100BF12
:1030600000BF08BD0014004040380240004001404D
:1030700001460868C06840F001000B68D860086825
:10308000806800F00702062A05D00868006840F052
:1030900001000B681860002070472DE9F0410446DC
:1030A0000D4600BF94F83C00012802D10220BDE883
:1030B000F081012084F83C0000BF022084F83D002C
:1030C0002068866826F0770626F47F4620688660AA
:1030D0002868502833D00CDC202850D004DC00288D
:1030E0004BD0102851D149E0302849D040284CD14C
:1030F00039E060282DD0702807D0B0F5805F03D06C
:10310000B0F5005F41D10DE040E0D5E902136A68F7
:10311000206802F0C6F82068866846F077062068C6
:10312000866033E0D5E902136A68206802F0B9F8D6
:103130002068806840F480402168886026E0EA6862
:103140006968206802F09EF95021206802F0B4F806
:103150001CE0EA686968206802F0A7F9602120682D
:1031600002F0AAF812E0EA686968206802F08AF9B9
:103170004021206802F0A0F808E000BF00BF00BFB7
:103180002968206802F098F800E000BF00BF012025
:1031900084F83D0000BF002084F83C0000BF00BF61
:1031A00085E7704710B5044620680069C0F3400009
:1031B000D8B12068C068C0F34000B0B16FF0020021
:1031C00021680861012020772068806900F00300F1
:1031D00018B12046FFF7E5FF05E0204600F0DEF8D5
:1031E000204600F07BF90020207720680069C0F3BA
:1031F0008000D8B12068C068C0F38000B0B16FF023
:10320000040021680861022020772068806900F4AA
:10321000407018B12046FFF7C4FF05E0204600F0DB
:10322000BDF8204600F05AF9002020772068006998
:10323000C0F3C000D8B12068C068C0F3C000B0B10E
:103240006FF0080021680861042020772068C069B9
:1032500000F0030018B12046FFF7A3FF05E0204669
:1032600000F09CF8204600F039F900202077206813
:103270000069C0F30010D8B12068C068C0F3001026
:10328000B0B16FF010002168086108202077206835
:10329000C06900F4407018B12046FFF782FF05E0D6
:1032A000204600F07BF8204600F018F90020207737
:1032B0002068006900F0010058B12068C06800F083
:1032C000010030B16FF0010021680861204600F074
:1032D00033F920680069C0F3C01058B12068C06895
:1032E000C0F3C01030B16FF0800021680861204643
:1032F000FFF770FE20680069C0F3801058B12068A5
:10330000C068C0F3801030B16FF0400021680861E0
:10331000204600F01DF920680069C0F3401058B144
:103320002068C068C0F3401030B16FF02000216801
:1033300008612046FFF74FFE10BD000010B586B0B3
:103340000446142101A8FDF71FF81149206888429E
:103350001CD100BF002000900E48006840F0100013
:103360000C4908600846006800F01000009000BF9B
:1033700000BF602001900220029000200390049082
:103380000320059001A90448FFF79EF806B010BD80
:10339000004001403038024000100240704770B5D4
:1033A00004460D46164600BF94F83C00012801D1A2
:1033B000022070BD012084F83C0000BF022084F888
:1033C0003D0036B1042E1BD0082E31D00C2E5ED11C
:1033D00045E02946206801F079FF2068806940F0C7
:1033E0000800216888612068806920F00400216855
:1033F000886120688069296908432168886147E0FD
:103400002946206801F09AFF2068806940F4006036
:10341000216888612068806920F480602168886163
:1034200020688069296940EA0120216888612FE0CD
:103430002946206801F0C0FF2068C06940F00800FC
:103440002168C8612068C06920F004002168C86153
:103450002068C069296908432168C86118E02946C5
:10346000206801F0E5FF2068C06940F40060216831
:10347000C8612068C06920F480602168C861206844
:10348000C069296940EA01202168C86100E000BFE5
:1034900000BF012084F83D0000BF002084F83C00FC
:1034A00000BF00BF85E710B504460CB9012010BD70
:1034B00094F83D0028B9002084F83C00204600F034
:1034C0000CF8022084F83D00211D206801F06CFEFC
:1034D000012084F83D000020E9E7704770470000B4
:1034E00070B504460E4601223146206801F0C8FE40
:1034F0000F492068884203D00E492068884201D1D4
:10350000012000E0002028B12068406C40F4004019
:10351000216848642068806800F00705062D05D002
:103520002068006840F0010021680860002070BD3C
:10353000000001400004014010B504460349206822
:10354000884201D1FFF7C6F810BD0000000001401D
:10355000704770472DE9F0470446206805682068E9
:10356000C668206847694FF00008C14605F00F089B
:10357000B8F1000F0AD105F0200038B106F02000A4
:1035800020B1204602F0BEF8BDE8F087B8F1000F88
:103590006ED007F0010018B906F49070002867D0CB
:1035A00005F0010030B106F4807018B1E06B40F016
:1035B0000100E06305F0040030B107F0010018B12C
:1035C000E06B40F00200E06305F0020030B107F06C
:1035D000010018B1E06B40F00400E06305F0080062
:1035E00030B107F0010018B1E06B40F00800E06373
:1035F000E06B70B305F0200028B106F0200010B198
:10360000204602F07FF820684069C0F38019E06B23
:1036100000F0080010B9B9F1000F23D0204602F0E5
:1036200047F82068406900F04000402816D1206823
:10363000406920F0400021684861606B50B1174834
:10364000616B0865606BFEF744FD10B1606B016D46
:1036500088470CE02046FFF77CFF08E02046FFF794
:1036600078FF04E02046FFF774FF0020E0638BE75B
:1036700005F0800030B106F0800018B1204602F05D
:1036800049FA81E705F0400030B106F0400018B17A
:10369000204602F01DF877E700BF75E7F9550008EE
:1036A00010B504460CB9012010BDA06900B100E0BE
:1036B00000BF94F8390028B9002084F8380020466B
:1036C00000F028F8242084F839002068C06820F42D
:1036D00000502168C860204602F068F82068006940
:1036E00020F49040216808612068406920F02A0099
:1036F000216848612068C06840F400502168C860B3
:103700000020E063202084F8390084F83A0000208B
:10371000CAE7000010B586B00446142101A8FCF7E2
:1037200033FE8F492068884259D100BF00200090A5
:103730008C48006840F010008A490860084600681C
:1037400000F01000009000BF00BF00BF00200090FC
:1037500084481438006840F0010082491439086038
:103760000846006800F00100009000BF00BF4FF461
:10377000C060019002200290012003900320049079
:103780000720059001A97848FEF79EFE7748784902
:1037900008604FF000604860002175488160C1609A
:1037A0004FF4806101610021416181614FF48071BA
:1037B000C161002101624162FEF7C0FD08B1FDF761
:1037C00015FC00BF6A486063846300BF00220521C6
:1037D0002520FFF729F82520FFF716F8BEE06549F8
:1037E000206888425AD100BF002000905D48001F29
:1037F000006840F400305B49091F08600846006813
:1038000000F40030009000BF00BF00BF0020009017
:1038100054481438006840F00800524914390860D0
:103820000846006800F00800009000BF00BF60205C
:1038300001900220029001200390032004900720B1
:10384000059001A94C48FEF73FFE4C484C490860E2
:103850004FF000604860002149488160C1604FF42A
:10386000806101610021416181614FF48071C1611A
:10387000002101624162FEF761FD08B1FDF7B6FB70
:1038800000BF3F486063846300BF002205212620FB
:10389000FEF7CAFF2620FEF7B7FF5FE03949206830
:1038A00088425BD100BF002000902E48001F0068B6
:1038B00040F480202B49091F08600846006800F486
:1038C0008020009000BF00BF00BF0020009025486E
:1038D0001438006840F0080022491439086008468E
:1038E000006800F00800009000BF00BF4FF4407077
:1038F00001900220029001200390032004900720F1
:10390000059001A91C48FEF7DFFD1C4860381E49E0
:1039100008604FF00060486000211B488160C16072
:103920004FF4806101610021416181614FF4807138
:10393000C161002101624162FEF700FD08B1FDF79F
:1039400055FB00BF10486063846300BF002205215F
:103950002720FEF769FF2720FEF756FF06B010BDAF
:103960000010014044380240000002404064024020
:103970005C04002000440040000C024088600240CB
:103980002C570020004800407458002077B581B0C3
:103990000446154694F83A00202850D1029800B108
:1039A00015B9012004B070BD00BF94F8380001289B
:1039B00001D10220F6E7012084F8380000BF029808
:1039C000A062A5850020E063222084F83A001D480B
:1039D000616BC8631C48616B08641C48616BC864F8
:1039E0000020616B086502AE32682368191D2B4602
:1039F000606BFEF719FD00BF002000902068006892
:103A0000009020684068009000BF00BF00BF002009
:103A100084F8380000BF2068C06840F480702168D6
:103A2000C8602068406940F0010021684861206852
:103A3000406940F04000216848610020B2E7022060
:103A4000B0E700005D560008A35600080D560008B8
:103A500070477047704700BFFEE70000794A411C7D
:103A6000515C512904D052295CD0532959D1A0E08E
:103A7000744AC11C515C090209B21346821C9A5C4B
:103A8000114300EE101AB8EEC00ADFED6F0A80EEA7
:103A9000201AB3EE000A21EE000A6C4981ED000AFB
:103AA0001A46411D515C090209B2021D9A5C11437C
:103AB00000EE101AF8EEC00A9FED631A80EE810A3C
:103AC000F3EE000A20EE200A604981ED010A1A4651
:103AD000C11D515C090209B2821D9A5C114300EEBE
:103AE000101AB8EEC00ADFED580A80EE201AB3EEC5
:103AF000000A21EE000A554981ED020A1A4600F13A
:103B00000801525C491C595C42EA012100EE101A7E
:103B1000B8EEC00ADFED4E0A80EE201A4B4981ED67
:103B2000091A8CE0474AC11C515C090209B21346CC
:103B3000821C9A5C114300EE101AF8EEC00A9FED49
:103B4000421A80EE810ADFED430A20EE200A3F4947
:103B500081ED030A1A46411D515C090209B2021D9A
:103B60009A5C114300EE101AB8EEC00A9FED361AA7
:103B7000C0EE010A9FED370A20EE800A334981ED3D
:103B8000040A1A46C11D515C090209B2821D9A5CE1
:103B9000114300EE101AB8EEC00A9FED2B1AC0EECA
:103BA000010A9FED2C0A20EE800A284981ED050AC2
:103BB00045E0244AC11C515C090209B21346821C2B
:103BC0009A5C114300EE101AF8EEC00A9FED1E1A1F
:103BD00080EE810ADFED200A20EE200A1B4981EDEC
:103BE000060A1A46011D525C411D595C42EA012138
:103BF00000EE101AB8EEC00ADFED130A80EE201AAC
:103C00009FED150A21EE000A104981ED070A1A46B8
:103C1000C11D515C090209B2821D9A5C114300EE7C
:103C2000101AF8EEC00A9FED081A80EE810ADFED47
:103C30000A0A20EE200A054981ED080A00BF00BFEC
:103C400070470000D458002000000047145900209D
:103C50000000C8420000FA440000344300B50B489D
:103C60000078552802D10020FFF7F8FE0748C07AF7
:103C7000552802D10B20FFF7F1FE0448807D55281E
:103C800002D11620FFF7EAFE00BD0000D458002044
:103C900030B52DED108B83B004469FED560A8DEDA7
:103CA000020A9FED550A8DED010A94ED000AB0EE6F
:103CB000408A94ED010AF0EE409A94ED020AB0EECB
:103CC00040FA94ED030AF0EE408A94ED040AF0EE17
:103CD00040FA94ED050AB0EE409A38EE290ADFED7D
:103CE000450AB4EEE00AF1EE10FA43DCB0EE000A49
:103CF000CFEE800A10EE905A2846FCF7D8FC41EC33
:103D00001E0B9FED3E1BB0EE4E0AF0EE6E0A02F067
:103D1000F3FCB0EE40CAF0EE60CA18EE100AFCF7F1
:103D2000C6FC41EC1E0B9FED351BB0EE4E0AF0EECB
:103D30006E0A02F0E1FCB0EE40DAF0EE60DA53EC2D
:103D40001C2B51EC1D0BFCF72AFB41EC1B0BB0EEBE
:103D50004B0AF0EE6B0A03F0F7FAB0EE40AAF0EE71
:103D600060AA9FED280B53EC102B51EC1A0BFCF7BB
:103D7000C9FC07D225A001F0DBFF002003B0BDEC99
:103D8000108B30BD38EE4F0ADFED1B0AB4EEE00AAF
:103D9000F1EE10FA04D223A001F0CAFF0020EDE7F3
:103DA000F5EEC08AF1EE10FA06D9B7EE000AF4EE8D
:103DB000C08AF1EE10FA04DD20A001F0B9FF002066
:103DC000DCE7B5EEC09AF1EE10FA04D222A001F0C1
:103DD000AFFF0020D2E7B2EE040AB4EEC09AF1EED3
:103DE00010FA04DD24A001F0A3FF0020C6E70120A3
:103DF000C4E700009A99993EAE47E13D00000000FB
:103E000000000040000000403333D33F4761697435
:103E1000206F766572657874656E6473206C656773
:103E2000000000004761697420756E6465726578F2
:103E300074656E6473206C6567000000466C69678A
:103E400068742070657263656E7420697320696E92
:103E500076616C69640000004672657175656E6319
:103E6000792063616E6E6F74206265206E65676194
:103E700074697665000000004672657175656E6351
:103E80007920697320746F6F206869676820283E05
:103E9000313029002DE9F0410546002437E005EBDB
:103EA000840090ED000A574800EB840080ED000A82
:103EB000544901EB840191ED001AF0EE410A514999
:103EC000203101EB840191ED001AB0EE410A04EBC0
:103ED000C4014D4A02EBC10000F09EFA04EBC4019C
:103EE000494A02EBC10191ED081AF0EE410A02F5D0
:103EF0009C6101EB840191ED001AB0EE410A04EBE4
:103F0000C402424901EBC20000F086FA641C082C8E
:103F1000C5DB3F4804F08CFC3B48D0EDCE0A20EED8
:103F2000200ABDEEC00A10EE100A04B2384804F0B0
:103F30007FFC3548D0EDBC0A20EE200ABDEEC00A59
:103F400010EE100A06B2324804F072FC2E48D0ED92
:103F5000AA0A20EE200ABDEEC00A10EE100A07B22F
:103F60002B4804F065FC2848D0ED980A20EE200A82
:103F7000BDEEC00A10EE100A0FFA80F82346324652
:103F80003946404600F0CCFD214804F051FC1F4862
:103F9000D0ED860A20EE200ABDEEC00A10EE100A0F
:103FA00004B21B4804F044FC1848D0ED740A20EE1B
:103FB000200ABDEEC00A10EE100A06B2144804F042
:103FC00037FC1148D0EDF20A20EE200ABDEEC00AFF
:103FD00010EE100A07B20E4804F02AFC0A48D0ED91
:103FE000E00A20EE200ABDEEC00A10EE100A0FFA19
:103FF00080F8234632463946404600F0C3FDBDE80E
:10400000F081000040540020C04F002000520020EA
:10401000C054002010B54FF47A71114804F044FCEC
:1040200000241AE004EBC4010E4A02EBC100DFEDEC
:104030000E0A9FED0E0A0E4A002100F021FB04EB50
:10404000C4020C4901EBC200DFED0B0A9FED0B0A25
:104050000B4A002100F014FB641C082CE2DB10BDAD
:10406000C0540020C04F0020000048420000164409
:10407000EC9C0008005200200000FA4400606A46F0
:10408000F89C000870B505460E46002431E004EBAC
:10409000C401194A02EBC100294600F0DFFA04EB23
:1040A000C402164901EBC200314600F0D7FAE0B273
:1040B00003F0CCFB90ED030A114800EB840080ED87
:1040C000000AE0B203F0C2FBB0F9040000EE100AEF
:1040D000B8EEC00ADFED0B0A20EE200AF3EE0E0A5E
:1040E00080EE201A0648403000EB840080ED001A74
:1040F000641C082CCBDB70BDC04F00200052002098
:1041000060540020DB0F494010B51A481A49086076
:1041100003204860002118488160C1604FF40021ED
:1041200001614FF4401141610021017641768176B1
:10413000C17601774177FDF7C1FC08B1FCF756FF66
:1041400000200E49086048608860C86008614861C6
:1041500088610120C86108620E2048620648FDF7A8
:1041600035FA0548FDF77FFF02210348FDF76DF999
:1041700010BD000000640040E455002034560020CB
:1041800010B51A481A4908600320486000211848F1
:104190008160C1604FF430210161002141610176ED
:1041A00041768176C17601774177FDF787FC08B1CA
:1041B000FCF71CFF00200F49086048608860C86059
:1041C00008610E204861002088610120C8610862F2
:1041D0000E2048620648FDF7F9F90548FDF743FF50
:1041E00002210348FDF731F910BD000000680040CE
:1041F0000C5600205C56002008B500BF002000903F
:104200001A48006840F40010184908600846006821
:1042100000F40010009000BF00BF00BF002000901D
:104220000846006840F4800008600846006800F412
:104230008000009000BF00BF002205213A20FEF759
:10424000F3FA3A20FEF7E0FA002205211020FEF7EB
:10425000EBFA1020FEF7D8FA002211463820FEF7BC
:10426000E3FA3820FEF7D0FA08BD000030380240EB
:1042700008B500BF002000902C48006840F01000F6
:104280002A4908600846006800F01000009000BF4E
:1042900000BF00BF002000900846006840F080008A
:1042A00008600846006800F08000009000BF00BF72
:1042B00000BF002000900846006840F0020008603F
:1042C0000846006800F00200009000BF00BF00BF79
:1042D000002000900846006840F00800086008468A
:1042E000006800F00800009000BF00BF00BF002081
:1042F00000900846006840F0040008600846006826
:1043000000F00400009000BF00BF00BF002000903C
:104310000846006840F0010008600846006800F0A8
:104320000100009000BF00BF08BD0000303802400F
:1043300000B58BB000200790089009900A901C21CE
:104340006846FCF721F8224822490860532048605B
:104350000021204881604FF47A71C1600021016121
:10436000FEF73AFE08B1FCF741FE4FF4805007908B
:1043700007A91848FEF791FE08B1FCF737FE15486B
:10438000FFF791F808B1FCF731FE602000900020A3
:10439000019002900490002269460E48FEF7FFFF4C
:1043A00008B1FCF723FE042269460A48FEF7F7FF2E
:1043B00008B1FCF71BFE0748FEF7C0FF00210548C7
:1043C000FFF78EF804210348FFF78AF80BB000BD11
:1043D00000400140FC04002010B50B480B49086068
:1043E0004FF4E1304860002108488160C1600161FC
:1043F0000C21416100218161C161FFF751F908B1D0
:10440000FCF7F4FD10BD0000001001401C0400206A
:1044100000BFFEE77047000010B52DED048B044689
:10442000B0EE408AF0EE608A24B99FED8A0ABDECB6
:10443000048B10BD94ED100A84ED110A94ED0F0A5F
:1044400084ED100AC4ED068A84ED078A38EEC80AA6
:1044500084ED0F0A207800287DD194ED010AD4ED77
:104460000F0A20EE200A84ED090A94ED0F0A10EEDF
:10447000101A0846FCF71BF941EC190BB0EE490A7B
:10448000F0EE690A03F0A7F800EE100AB8EEC00AD1
:10449000DFED710AB4EEE00AF1EE10FA04D29FEDFE
:1044A0006D0A84ED0A0A09E094ED0A0AD4ED020AC5
:1044B00094ED0F1A00EE810A84ED0A0A94ED0D0ABC
:1044C00084ED0E0A94ED0C0A84ED0D0A94ED0F0AAA
:1044D000D4ED100A30EE600A84ED0C0A94ED030A64
:1044E000D4ED0C0A20EE200A84ED0B0A94ED0A0AA2
:1044F000D4ED050AB4EEE00AF1EE10FA04DD94ED15
:10450000050A84ED0A0A10E094ED0A0AD4ED050AC2
:10451000F1EE600AB4EEE00AF1EE10FA05D294ED85
:10452000050AB1EE400A84ED0A0A94ED090AD4EDB9
:104530000A0A30EE200AD4ED0B0A30EE200A84ED90
:10454000080A94ED080AD4ED040AB4EEE00AF1EE8C
:1045500010FA06DD00E016E094ED040A84ED080A86
:1045600075E094ED080AD4ED040AF1EE600AB4EEA9
:10457000E00AF1EE10FA6AD294ED040AB1EE400AB4
:1045800084ED080A63E02078012860D194ED0F0AD9
:10459000D4ED100A30EE600AD4ED010A20EE200AB4
:1045A00084ED090A94ED020AD4ED0F0A20EE200AE8
:1045B00084ED0A0A94ED0D0A84ED0E0A94ED0C0ABE
:1045C00084ED0D0A94ED0F0AD4ED100AB0EE001A36
:1045D00001EE600AD4ED110A30EE200A84ED0C0AD7
:1045E00094ED030AD4ED0C0A20EE200A84ED0B0AA8
:1045F00094ED090AD4ED0A0A30EE200AD4ED0B0A34
:1046000030EE200AD4ED080A30EE200A84ED080AC4
:1046100094ED080AD4ED040AB4EEE00AF1EE10FAC3
:1046200004DD94ED040A84ED080A10E094ED080A14
:10463000D4ED040AF1EE600AB4EEE00AF1EE10FAED
:1046400005D294ED040AB1EE400A84ED080A94ED17
:10465000080AECE6000000009A99993E00B101B901
:10466000704791ED000A80ED010A91ED010A80ED9D
:10467000020A91ED020A80ED030A00BFF0E7000094
:1046800000B102B97047017092ED001A80ED011A75
:1046900092ED011A80ED021A92ED021A80ED031AD2
:1046A00080ED040AC0ED050A9FED0C1A80ED0E1A8C
:1046B00080ED0D1A80ED0C1A9FED081A80ED081A96
:1046C00080ED0B1A80ED0A1A80ED091A80ED111A9F
:1046D00080ED101A80ED0F1A00BFD3E70000000034
:1046E00008B50D20E44908700846007800EB40004A
:1046F000E24A02EB00113022E148FBF72CFEFFF703
:1047000089FCE049E048FFF7BDFC00BF00BF00F0B6
:10471000EDFBDE480078D849097888420FD0D648AA
:10472000007800EB4000D54A02EB00113022D4485B
:10473000FBF711FE4FF47A71D54804F0B5F8CE4876
:104740000078D2490870CC4800780F2809D2DFE8F9
:1047500000F0093A398DD7D838FE08DB088C0808F4
:10476000FD0084E19FEDCB0AC74880ED000AB7EE5B
:10477000000A80ED010A9FEDC80A80ED020A9FED54
:10478000C70AC04880ED000A9FEDC30A80ED010A08
:104790009FEDC10A80ED020A0146BB48FFF772FC9B
:1047A0000120034602460146DFEDBB1A9FEDBA1A0F
:1047B000DFEDB90A9FEDB80A0090B14802F026FF7C
:1047C00055E154E153E19FEDB60AAF4880ED000A90
:1047D000B7EE000A80ED010A9FEDB20A80ED020AF1
:1047E0009FEDB10AA74880ED000A9FEDAB0A80ED6E
:1047F000010A9FEDAE0A80ED020A0146A248FFF7CA
:1048000041FC03F0E5F9B0F90280404604F058F8A5
:10481000404244B203F0DCF9B0F90280404604F0B3
:104820004FF8404245B203F0D3F9B0F90280404658
:1048300004F046F8404246B203F0CAF9B0F90280EB
:10484000404604F03DF8404247B22B4632463946D6
:10485000DFED911AB6EE001AF6EE000A9FED8E0A11
:104860008748009402F0D2FE01E100E19FED8F0A3B
:10487000854880ED000A9FED8E0A80ED020A9FEDCB
:104880008D0A804880ED000A9FED8B0A80ED020AB8
:1048900001467D48FFF7F6FB03F09AF9B0F9028074
:1048A000404604F00DF8404247B203F091F9B0F9E8
:1048B0000280404604F004F8404246B203F088F912
:1048C000B0F90280404603F0FBFF404244B203F0DF
:1048D0007FF9B0F90280404603F0F2FF404245B252
:1048E000334622462946F6EE081AB5EE001AF6EED1
:1048F000000A9FED690A6248009702F087FEB6E061
:10490000B5E0FCF775FBB2E09FED6C0A5E4880ED08
:10491000000A9FED670A80ED020A9FED690A594877
:1049200080ED000A9FED640A80ED020A01465648B8
:10493000FFF7A8FB03F04CF9B0F90000002834DDC4
:1049400003F046F9B0F90080404601E060E05EE027
:1049500003F0B6FF45B203F03BF9B0F900804046E2
:1049600003F0AEFF46B203F033F9B0F900804046E1
:1049700003F0A6FF404244B203F02AF9B0F90080E8
:10498000404603F09DFF404247B233462246394637
:10499000F5EE001A9FED401AF6EE000AB6EE080A90
:1049A0003748009502F032FE30E003F011F9B0F91B
:1049B0000080404603F084FF45B203F009F9B0F9E6
:1049C0000080404603F07CFF44B203F001F9B0F9E7
:1049D0000080404603F074FF404246B203F0F8F80E
:1049E000B0F90080404603F06BFF404247B22346D7
:1049F00032463946F6EE001AB6EE081AF5EE000A0F
:104A00009FED250A1E48009502F000FE2FE02EE0E3
:104A10009FED200A1C4880ED000A9FED1F0A80EDE3
:104A2000010A9FED1D0A80ED020A9FED1C0A154840
:104A300080ED000A9FED180A80ED010A9FED160A2D
:104A400080ED020A01461048FFF71CFB01200346D7
:104A500002460146DFED101A9FED0F1ADFED0E0A38
:104A60009FED0D0A0090064802F0D0FD00BF00BF88
:104A7000022004F001F949E6140100201801002089
:104A8000D4540020E8000020DC00002015010020A4
:104A9000C05400200000484300000000000096437E
:104AA000000082430000164300007A430000F042F9
:104AB0000000C84200005C430000024300000C43B9
:104AC00000008C4370B504460D4612481249086038
:104AD00012484860002110488160C1604FF4806135
:104AE00001610421416100218161C161FEF7D8FDAE
:104AF00008B1FCF77BFA08480068C06840F0100075
:104B000005490968C8602A4621460348FEF73EFF6A
:104B100070BD000000440040EC560020A08601005B
:104B20002DE9FC4107460C4615461E460020134958
:104B3000C86088604FF40070086008200861380A77
:104B40008DF80000F8B28DF80100200A8DF80200FF
:104B5000E0B28DF80300280A8DF80400E8B28DF861
:104B60000500300A8DF80600F0B28DF80700012329
:104B70006A460348FCF77EFCBDE8FC8184560020B1
:104B8000E45500202DE9FC4107460C4615461E461B
:104B900000201349C860886040F2FF1008600820B8
:104BA0000861380A8DF80000F8B28DF80100200A7B
:104BB0008DF80200E0B28DF80300280A8DF8040099
:104BC000E8B28DF80500300A8DF80600F0B28DF8D5
:104BD000070001236A460348FCF74CFCBDE8FC8152
:104BE00084560020E455002000B52DED088B89B0D7
:104BF000B0EE408AF0EE608AB0EE419AF0EE619A33
:104C0000F0EE42AAB0EE62AAB0EE43BAF0EE63BA9A
:104C10008DED018ACDED028A8DED039ACDED049ADA
:104C2000CDED05AA8DED06AA8DED07BACDED08BA3A
:104C300001A8FFF72FF909B0BDEC088B00BD0000FB
:104C400030B52DED108B87B0B0EE409A0446B0EE33
:104C500060EA94ED000AF0EE40EA94ED010A8DED71
:104C6000050A94ED020A8DED040A94ED030AF0EEB4
:104C7000408A94ED040AF0EE409A94ED050A10EE95
:104C8000105A19EE100AFBF712FD41EC1D0B5F489C
:104C900090ED000B53EC102B51EC1D0BFBF720FC9F
:104CA00041EC1C0B9FED5A0B53EC102BFBF712FD44
:104CB00011D219EE100AFBF7FAFC41EC1C0B534819
:104CC00090ED000B53EC102B51EC1C0BFBF708FC88
:104CD00041EC100B01E09FED500B8DED020B2846CF
:104CE000FBF7E5FCCDE900019DED020B53EC102B29
:104CF0009DED000B51EC100BFBF7F8FB41EC1A0B90
:104D000047480068FBF7D3FC41EC1B0B53EC1A2B14
:104D1000FBF745FB41EC1F0BFBF70CFD404908601E
:104D200019EE100AFBF7C3FC384A03C23C4890ED69
:104D3000000A30EE0E0A10EE101A0846FBF7B7FC18
:104D400041EC1B0B9FED371BB0EE4B0AF0EE6B0AEC
:104D500001F050FCB0EE40AAF0EE60AA51EC1A0B44
:104D6000FBF7E8FC08EE100AB4EEE88AF1EE10FA60
:104D700020D8F0EE000A89EEA00AC8EE280A10EE4C
:104D8000A90A84ED090A9FED290A28EE000AC0EE5F
:104D9000280AB0EE60AAB0EE4A0AFBF771FADDED20
:104DA000040AB1EE601AF0EE6E0A41EE000AC4ED9C
:104DB0000A0A26E038EE680AF7EE000A70EEE80A02
:104DC00080EE201AB0EE41AAF0EE000A89EEA00AA9
:104DD000F1EE4A0A00EEA90A84ED090ADFED130A92
:104DE0006AEE200AB0EE600AFBF74AFAF0EE400ADB
:104DF0009DED050AB0EE6E1A00EE201A84ED0A1A37
:104E000000BF07B0BDEC108B30BD0000F0030020E8
:104E1000000000000000E03F000000000000000073
:104E2000E8030020000000000000F03FDB0F4940D5
:104E300010B52DED028BB0EE408A094880ED008A56
:104E40000520084908704FF47A71074803F02CFDDB
:104E50004FF47A71054803F027FDBDEC028B10BDBD
:104E60000C04002014010020245500203855002097
:104E70001CB5044603F0E2FD0E48112100234FF457
:104E80000072CDE900100CA1114804F03BFC114860
:104E90000A2100234FF48072CDE900100EA11148C1
:104EA00004F030FC1048006803F014FF03F0F0FD3C
:104EB0001CBD000000040020506F736974696F6EA0
:104EC000436F6E74726F6C546872656164000000A9
:104ED000E146000808040020446574656374546169
:104EE000736B0000F90E00080404002010B52DEDCE
:104EF000048B82B051480078052803D102B0BDEC84
:104F0000048B10BD4D4800780D2822D002F060FEC1
:104F1000B0F9060040F2762188421ADD04F090FCD8
:104F20000199401AB0F57A7F13D904F089FC0190F9
:104F300004F086FC00EE100AB8EE400ADFED400AED
:104F400080EE201AB0EE418AB0EE480AFFF770FFFB
:104F5000D4E702F03DFEC07A012803D00020FCF720
:104F600037F818B10D203549087065E002F030FEC1
:104F7000807A022803D10020304908705CE002F0FA
:104F800027FE807A032829D102F022FEB0F9020020
:104F900000EE100AB8EEC00A10EE104A2046FBF7E9
:104FA00086FB41EC190BB0EE490AF0EE690A01F0FC
:104FB00017FBB0EE408AF0EE608A9FED220B53ECB7
:104FC000102B51EC180BFBF79DFB03D203201B4960
:104FD000087031E00020194908702DE002F0F8FD5A
:104FE000807A012828D102F0F3FDB0F9020000EE2A
:104FF000100AB8EEC00A10EE104A2046FBF757FB25
:1050000041EC190BB0EE490AF0EE690A01F0E8FA3A
:10501000B0EE408AF0EE608A9FED0A0B53EC102B45
:1050200051EC180BFBF76EFB03D20120034908700B
:1050300002E000200149087000BF5FE71401002072
:1050400000007A440000000000C0624010B500BFBC
:10505000502080F31188BFF34F8FBFF36F8F00BFD5
:1050600004F0F4FB18B14FF080500449086000BF11
:10507000002080F3118800BF10BD000004ED00E0A7
:1050800000B593B0302107A8FBF77EF9142102A8E0
:10509000FBF77AF900BF002001902448006840F037
:1050A0008050224908600846006800F08050019056
:1050B00000BF00BF00BF002001901D48006840F401
:1050C00080401B4908600846006800F48040019059
:1050D00000BF00BF012007904FF4A02008900220DD
:1050E0000D9041050E9104210F91A82110910221EC
:1050F00011910421129107A8FDF748FD08B1FBF7B3
:1051000075FF0F20029002200390002004904FF4BE
:10511000A05005904FF480500690052102A8FDF79D
:10512000D5FB08B1FBF762FF13B000BD4038024069
:10513000007000401448006840F470001249086094
:105140001248006840F001001049086000200F4933
:10515000083108600D4800680D4908400B49086097
:105160000C48091D0860081F006820F48020091FF2
:105170000860002005490C3108604FF000600249CA
:10518000803908607047000088ED00E00038024078
:10519000FFFFF6FE1030002410B50248FEF702F8BB
:1051A00010BD00003C05002010B50268294B984254
:1051B0000ED0B0F1804F0BD0274B984208D0274B30
:1051C000984205D0264B984202D0264B984203D1F4
:1051D00022F070024B681A431E4B984220D0B0F167
:1051E000804F1DD01C4B98421AD01C4B984217D0B0
:1051F0001B4B984214D01B4B984211D01A4B98422B
:105200000ED01A4B98420BD0194B984208D0194B2C
:10521000984205D0184B984202D0184B984203D1BF
:1052200022F44072CB681A4322F080034C6943EAAF
:10523000040202608B68C3620B688362054B98426C
:1052400002D0084B984201D10B69036301234361EB
:1052500010BD0000000001400004004000080040B4
:10526000000C0040000401400040014000440140A7
:105270000048014000180040001C00400020004091
:1052800030B501F01F05012404FA05F3046A9C43BC
:105290000462046A01F01F0502FA05F52C4304625A
:1052A00030BD30B50C46816821F47F4142EA0325C8
:1052B00025432943816030BD0A46816821F0700191
:1052C00042F00703194381607047000030B5056A5A
:1052D00025F001050562026A4368846924F07004C0
:1052E00024F003040D682C4322F002028D682A4347
:1052F000104DA84200D103E00F4DA84206D100BFD7
:1053000022F00802CD682A4322F00402094DA84287
:1053100002D0094DA84207D123F4807323F400730F
:105320004D692B438D692B43436084614D68456310
:10533000026230BD000001400004014030B5056A42
:1053400025F010050562026A4368846924F4E0448C
:1053500024F440740D6844EA052422F020028D688C
:1053600042EA0512124DA84200D103E0114DA842B5
:1053700007D100BF22F08002CD6842EA051222F078
:1053800040020B4DA84202D00A4DA84209D123F495
:10539000806323F400634D6943EA85038D6943EA22
:1053A0008503436084614D688563026230BD0000FF
:1053B000000001400004014030B5056A25F4807505
:1053C0000562026A4368C46924F0700424F003048F
:1053D0000D682C4322F400728D6842EA0522124DBA
:1053E000A84200D103E0114DA84207D100BF22F42A
:1053F0000062CD6842EA052222F480620A4DA8428A
:1054000002D00A4DA84209D123F4805323F400535B
:105410004D6943EA05138D6943EA05134360C4618E
:105420004D68C563026230BD0000014000040140C8
:1054300030B5056A25F480550562036A4468C2697F
:1054400022F4E04222F440720D6842EA052223F47D
:1054500000538D6843EA0533084DA84202D0084D39
:10546000A84204D124F480444D6944EA8514446080
:10547000C2614D680564036230BD00000000014058
:105480000004014030B50B461446026A056A25F057
:1054900001050562816921F0F00141EA041122F061
:1054A0000A021A438161026230BD30B50B461446D0
:1054B000056A25F0100505628169026A21F47041D0
:1054C00041EA043122F0A00242EA03128161026241
:1054D00030BD000031B1012921D002293CD003297F
:1054E00074D156E090ED070ADFED390A30EEC00ABC
:1054F000D0ED080A30EE600A364A82ED000AD0ED9F
:10550000080A9FED350AB0EE001A01EE600AD2EDEE
:10551000000A30EE600A314A82ED000A56E090ED52
:10552000070ADFED2B0A30EEC00AD0ED080A30EE94
:10553000600A2B4A82ED000AD0ED080A9FED260A88
:10554000B0EE001A01EE600AD2ED000A30EE600AF9
:10555000244A82ED000A39E090ED070ADFED1C0ACB
:1055600030EEC00AD0ED080A30EE600A1E4A82ED25
:10557000000AD0ED080A9FED180AB0EE001A01EEFD
:10558000600AD2ED000A30EE600A184A82ED000A85
:105590001CE090ED070ADFED0E0A30EEC00AD0EDF8
:1055A000080A30EE600A124A82ED000AD0ED080ABD
:1055B0009FED090AB0EE001A01EE600AD2ED000A72
:1055C00030EE600A0B4A82ED000A00BF00BF704750
:1055D000DB0FC93FF8000020DB0F4940F40000203A
:1055E00000010020FC000020080100200401002030
:1055F000100100200C01002070B50546AC6B0020A6
:10560000E085E0842046FDF7A4FF70BD70B5064636
:105610000025B46B20684069C0F3C01594F83900C8
:10562000212805D125B10020E084204600F060F853
:1056300020684069C0F3801594F83A00222805D10B
:1056400025B10020E085204600F032F8E06B40F004
:105650001000E0632046FDF77CFF70BD70B5054685
:10566000AC6B2868006800F48070B0B90020E08559
:105670002068C06820F480702168C8602068406994
:1056800020F00100216848612068406920F0400056
:1056900021684861202084F83A002046FEF7D8F9B6
:1056A00070BD70B50446A56B2846FEF7D2F970BDF3
:1056B0000168C96821F490710268D1600168496984
:1056C00021F0010102685161202180F83A107047F1
:1056D00010B504462068C06820F040002168C8600A
:1056E000202084F839002046FEF7B4F9002010BDD0
:1056F0000168C96821F0C0010268D160202180F8EA
:105700003910704770B5044694F83A0022284AD1FF
:10571000A068B0F5805F13D1A56A206940B9206800
:105720004068C0F308002880A06A801CA06219E0CD
:1057300020684068C0B22880A06A401CA06211E0C6
:10574000206938B920684068C1B2A26A501CA062C2
:10575000117007E02068406800F07F01A26A501CC9
:10576000A0621170E08D401E80B2E085C8B920684B
:10577000C06820F020002168C8602068C06820F45C
:1057800080702168C8602068406920F001002168AD
:105790004861202084F83A002046FEF759F900209D
:1057A00070BD0020FCE70220FAE700002DE9F0417F
:1057B00004462068006920F44050E16808432168ED
:1057C00008612169A068084361690843E16940EA0A
:1057D00001052068C06849F20C61884328432168AC
:1057E000C8602068406920F44070A16908432168BE
:1057F0004861E069B0F5004F7ED1C4492068884215
:1058000003D0C349206888425DD1FDF757F900EB0A
:10581000C00101EB001061684900B0FBF1F06421A8
:10582000B0FBF1F00601FDF749F900EBC00101EB17
:10583000001061684900B0FBF1F7FDF73FF900EB9C
:10584000C00101EB001061684900B0FBF1F0642178
:10585000B0FBF1F000EBC00101EB0010A7EB800002
:10586000322101EBC0006421B0FBF1F000F0F80040
:1058700006EB4006FDF722F900EBC00101EB00103A
:1058800061684900B0FBF1F7FDF718F900EBC001C2
:1058900001EB001061684900B0FBF1F06421B0FB3E
:1058A000F1F000EBC00101EB0010A7EB800032210A
:1058B00001EBC0006421B0FBF1F000F007003044C0
:1058C0002168886020E1FDF7E9F800EBC00101EBF9
:1058D000001061684900B0FBF1F06421B0FBF1F009
:1058E0000601FDF7DBF800EBC00101EB0010616879
:1058F0004900B0FBF1F700E045E0FDF7CFF800EB21
:10590000C00101EB001061684900B0FBF1F06421B7
:10591000B0FBF1F000EBC00101EB0010A7EB800041
:10592000322101EBC0006421B0FBF1F000F0F8007F
:1059300006EB4006FDF7B2F800EBC00101EB0010EA
:1059400061684900B0FBF1F7FDF7A8F800EBC00172
:1059500001EB001061684900B0FBF1F06421B0FB7D
:10596000F1F000EBC00101EB0010A7EB8000322149
:1059700001EBC0006421B0FBF1F000F007003044FF
:1059800021688860C0E061492068884203D060498E
:10599000206888425CD1FDF791F800EBC00101EB73
:1059A000001061688900B0FBF1F6FDF787F800EBA5
:1059B000C00101EB001061688900B0FBF1F06421C7
:1059C000B0FBF1F000EBC00101EB0010A6EB800092
:1059D000322101EB00106421B0FBF1F000F0F00681
:1059E000FDF76CF800EBC00101EB00106168890065
:1059F000B0FBF1F06421B0FBF1F006EB0016FDF70F
:105A00005DF800EBC00101EB001061688900B0FB9C
:105A1000F1F7FDF753F800EBC00101EB00106168EE
:105A20008900B0FBF1F06421B0FBF1F000EBC001A4
:105A300001EB0010A7EB8000322101EB0010642184
:105A4000B0FBF1F000F00F003044216888605BE0AB
:105A5000FDF724F800EBC00101EB0010616889003C
:105A6000B0FBF1F6FDF71AF800EBC00101EB0010F6
:105A700061688900B0FBF1F06421B0FBF1F000EB4C
:105A8000C00101EB0010A6EB8000322101EB0010F9
:105A90006421B0FBF1F000F0F006FCF7FFFF00EB33
:105AA000C00101EB001061688900B0FBF1F06421D6
:105AB000B0FBF1F006EB0016FCF7F0FF00EBC001C5
:105AC00001EB001061688900B0FBF1F7FCF7E6FF1D
:105AD00000EBC00101EB001061688900B0FBF1F040
