:020000040800F2
:10000000085B00205D020008393F000859380008ED
:10001000353F0008430B00080555000800000000AC
:100020000000000000000000000000009D0100082A
:10003000470F000800000000F9010008694A0008A5
:1000400077020008770200087702000877020008AC
:10005000770200087702000877020008770200089C
:10006000770200087702000877020008770200088C
:10007000770200087702000877020008770200087C
:100080001D0E0008770200087702000877020008BA
:10009000490B000877020008770200087702000881
:1000A00077020008B54B00087702000877020008C5
:1000B000770200087702000877020008770200083C
:1000C000770200087702000877020008770200082C
:1000D0007702000809540008195400087702000844
:1000E000770200087702000877020008770200080C
:1000F00077020008770200087702000877020008FC
:1001000077020008770200087702000877020008EB
:1001100077020008770200087702000877020008DB
:1001200077020008770200082D0E00087702000809
:1001300077020008770200087702000877020008BB
:10014000590B0008770200087702000877020008C0
:10015000770200087702000877020008770200089B
:10016000770200087702000877020008770200088B
:1001700077020008770200087702000800000000FC
:100180007702000877020008DFF80CD000F070FC5E
:1001900000480047E9790008085B00202C4B1968EB
:1001A0000868B0E8F04F80F30988BFF36F8F4FF015
:1001B000000080F3118870470000000008480068C4
:1001C000006880F308884FF0000080F3148862B65E
:1001D00061B6BFF34F8FBFF36F8F00DF00BF00BF6B
:1001E00008ED00E0DFF80C00016841F470010160E7
:1001F000704700BF88ED00E0EFF30980BFF36F8F19
:10020000134B1A681EF0100F08BF20ED108A20E96A
:10021000F04F106009B44FF0500080F31188BFF325
:100220004F8FBFF36F8F08F02BFD4FF0000080F36E
:10023000118809BC19680868B0E8F04F1EF0100F6B
:1002400008BFB0EC108A80F30988BFF36F8F704746
:1002500020000020EFF3058070470000064880472B
:1002600006480047FEE7FEE7FEE7FEE7FEE7FEE79B
:10027000FEE7FEE7FEE7FEE7514B000889010008B4
:10028000DFED190AB5EEC00A60EE200ABDEEE01AF5
:1002900011EE100AF1EE10FA38BF401E00EE100AFF
:1002A0001349F7EE001AB8EEC00A30EEC00ADFEDCF
:1002B0000F0A60EE200ABCEEE00A10EE100AC0F34E
:1002C000080000EE100A01EB8000B8EE400A90ED45
:1002D000011A70EEC00A90ED000A71EEE01A21EEEC
:1002E000800A00EE810A704783F9223E0000004434
:1002F000849A00082DE9F05F0546002092469B464F
:1003000088460646814640241BE02846414647462B
:10031000224600F03AFA53465A46C01A914110D389
:1003200011461846224600F021FA2D1A67EB010803
:100330004F4622460120002100F018FA17EB000971
:100340004E41201EA4F10104DFDC484631462A4616
:100350004346BDE8F09F40EA01039B0703D009E054
:1003600008C9121F08C0042AFAD203E011F8013BA1
:1003700000F8013B521EF9D27047D2B201E000F8FA
:10038000012B491EFBD270470022F6E710B5134639
:100390000A4604461946FFF7F0FF204610BD2DE936
:1003A000FE4F804681EA0300C00F0C46009021F00A
:1003B000004123F00045B8EB0200A94105D24046B8
:1003C000214690461C460B46024623F0004010434F
:1003D00047D0270DC7F30A00C3F30A510290401A11
:1003E000019040286BDAC3F3130040F4801B00989F
:1003F000924620B10023D2EB030A63EB0B0B01986A
:100400005946C0F14002504600F0B0F906460D468C
:1004100050465946019A00F0C8F910EB08006141B6
:10042000002487EA115284EAE7731A4340D0009A05
:1004300062B3019A012A4FEA075215DC001B61EBF7
:1004400002014FF0004202EA0752CDE90042001CCF
:1004500041F5801132462B4600F0FFF903B0BDE8AC
:10046000F08F40462146F9E7001B61EB0201001CBA
:1004700041F5801300185B412018A2F5001747EBE7
:10048000030140EAD570B6196D4111E06D084FEADD
:10049000360645EAC0754FEA0752001B61EB0201C0
:1004A000001C41F5801149084FEA30000019514104
:1004B00032462B4603B0BDE8F04F00F0BFB90098BC
:1004C000012240000023D0EB020263EBE0730098AE
:1004D00021464FEAE074B8EB000061EB0401E9E764
:1004E00083F000435BE781F0004158E72DE9FE4FC0
:1004F00081EA030404F0004421F0004100944FF02D
:10050000000B23F0004350EA01045ED052EA0304DA
:100510005BD0C3F30A54C1F30A552C44A4F2F3345C
:100520000194A0FB0254C1F3130141F48011C3F301
:10053000130343F4801301FB024400FB034E840ABF
:10054000970A44EA815447EA8357A4FB0768029557
:100550008D0A05FB07854FEA932C04FB0C542705F5
:10056000029D4FEA065847EA1637B5EB08056EEBD1
:10057000070C870E920E47EA811742EA8312A7FB07
:100580000201B6EB0B0164EB00042B0D43EA0C33C4
:100590005E1844EB1C50DA465146E7FB0201C5F3F6
:1005A00013044FEA0B3343EA14534FEA0432019C1D
:1005B00043EA0603A4F10C040294009CCDE900B4C4
:1005C00000F04BF903B0BDE8F08F00200146F9E7D9
:1005D0002DE9F04D81EA030404F0004B21F00045C1
:1005E00014464FF0000A23F0004150EA050220D0E3
:1005F00054EA01021DD0C5F30A570246C5F313039E
:10060000C1F31300C1F30A5640F4801543F480137C
:10061000A7EB0608101BD64608F2FD3873EB050061
:1006200002D308F1010801E092185B41B8F1000F14
:1006300003DA00200146BDE8F08D00204FF4801160
:10064000064684460EE0171B73EB050705D3121B05
:1006500063EB050306434CEA010C49084FEA3000FE
:1006600092185B4150EA0107EDD152EA030012D023
:1006700082EA040083EA0501084305D0101BAB4160
:1006800006D20122002306E000224FF0004302E0E0
:100690006FF0010253101AEB06004CEB085110EBFF
:1006A0000A0041EB0B01BDE8F04D00F0C7B800F0C7
:1006B000004230F000400AD0C10D01F56071C0F376
:1006C000160042EA0151C20840071143704700205A
:1006D0000146704730B5041E71F1000404DB4FF091
:1006E0000044404264EB0101141E73F1000405DB79
:1006F0001C464FF00043524263EB04038B4208BF99
:10070000824230BD30B5041E71F1000404DB4FF0AD
:100710000044404264EB0101141E73F1000405DB48
:100720001C464FF00043524263EB0403994208BF5A
:10073000904230BD01F0004330B421F0004150EA56
:10074000010206D00A0DA2F56072C1F31301002A5E
:1007500002DC30BC00207047440F44EAC104C100F1
:10076000E01830BC00EBC25000F031B8202A04DBA6
:10077000203A00FA02F1002070479140C2F12003B4
:1007800020FA03F3194390407047202A04DB203AF3
:1007900021FA02F00021704721FA02F3D040C2F1A1
:1007A00020029140084319467047202A06DBCB17E8
:1007B000203A41FA02F043EAE07306E041FA02F31C
:1007C000D040C2F1200291400843194670470029E9
:1007D000A8BF7047401C490008BF20F001007047C7
:1007E00010B4B0FA80FC00FA0CF050EA010404BF27
:1007F00010BC704749B1CCF1200421FA04F411FA7D
:100800000CF118BF012121430843A3EB0C01CB1DC0
:100810004FEA00614FEA102042BF002010BC704731
:1008200000EBC35010440029A4BF10BC7047401C0B
:10083000490008BF20F0010010BC704710B5141E1D
:1008400073F1000408DA401C41F1000192185B4189
:100850001A4301D120F0010010BD2DE9F04D924660
:100860009B4611B1B1FA81F202E0B0FA80F2203277
:100870009046FFF77BFF04460F4640EA0A0041EA34
:100880000B0153465A46084313D0114653EA010060
:1008900019D0C8F140025046FFF777FF05460E46D3
:1008A000504659464246FFF761FF084305D00120F4
:1008B00004E020463946BDE8F08D0020054346EAB5
:1008C000E0762C4337430A986305E40AA0EB08005E
:1008D0000022FD0A44EA47540A3002D500200146AE
:1008E000E9E7010510196941DDE908450019694189
:1008F000BDE8F04DA2E770B521F0004303430CD0F2
:10090000C1F30A550024D5EB040564EB0403D617A4
:10091000AD1AB34102DB0020014670BD201841EB47
:10092000025170BD2DE9F04D00231A461B1A8A4171
:1009300003DB00200146BDE8F08DC1F30A52C1F38C
:10094000130141F480154FF0000BD10702D10018BC
:100950006D41521E0027044640F2FF11384601EB5C
:10096000620A3E468046024600204FF48011FFF79F
:100970000CFFC2197141BB1846EB0100B4EB030C2C
:1009800075EB000C04D3E41A65EB000517460E4620
:10099000241908F101006D4180463428E3DDF9197E
:1009A00046EB0600091BA84103D24FF0FF32134665
:1009B00001E0002213461BEB070046EB0A51BDE89D
:1009C000F04DFFF73BBF2DE9FE4FC3F30A5701F08F
:1009D00000450024C1F30A56C3F31303C1F3130106
:1009E00043F4801312EB020AA64641F480110095ED
:1009F00043EB030CA7F1010B16E0B0EB0A0061EB2F
:100A00000C01071E71F1000707DA4FF00008D0EB68
:100A1000080085F0004568EB0101171A73EB010728
:100A2000EBD3761E001849415E45F6DA50EA010222
:100A300009D0CDE900E5002213460296FFF70DFF2D
:100A400003B0BDE8F08F20460099F9E70EB5C10F5D
:100A500080EAE0700844CA07002140F233438DE881
:100A60000E000A460B46FFF7F8FE03B000BD00007B
:100A7000064C074D06E0E06840F0010394E80700EB
:100A800098471034AC42F6D3FFF782FB20A500084C
:100A900040A500080EB540F2334102910021CDE996
:100AA00000110A460B46FFF7D8FE03B000BD70B533
:100AB000C1F30A5201F000450024C1F3130140F2D2
:100AC000FF3341F480119A4201DA002070BD40F2F8
:100AD00033439A42A2F2334203DC5242FFF755FEFF
:100AE00000E090402C43F1D0404270BD70B58C18AE
:100AF00010F8015B15F0070301D110F8013B2A1132
:100B000006D110F8012B03E010F8016B01F8016B1E
:100B10005B1EF9D12B0705D40023521E0DD401F81A
:100B2000013BFAE710F8013BCB1A921C03E013F8E3
:100B3000015B01F8015B521EF9D5A142D8D3002018
:100B400070BD00BFFEE7000010B5024800F0CDFE0A
:100B500010BD00006055002010B5024800F0C5FE31
:100B600010BD00008855002070B52DED0E8BB0EE45
:100B7000408AF0EE608AB0EE419A04460D4618EEC7
:100B8000900AFFF794FD41EC1E0B9FED2E1BB0EE7B
:100B90004E0AF0EE6E0A05F0F7F9B0EE40CAF0EE3C
:100BA00060CA18EE100AFFF782FD41EC1E0B9FEDA4
:100BB000251BB0EE4E0AF0EE6E0A05F0E5F9B0EE38
:100BC00040DAF0EE60DA53EC1C2B51EC1D0BFFF712
:100BD000E6FB41EC1B0B9FED1D1BB0EE4B0AF0EE4C
:100BE0006B0A05F0D1F9B0EE40AAF0EE60AA51EC24
:100BF0001A0BFFF79FFD206018EE900AFFF757FDD4
:100C000041EC1B0B29EE080A10EE101A0846FFF7FC
:100C10004EFD41EC1C0BB0EE4B1AF0EE6B1AB0EE31
:100C20004C0AF0EE6C0A04F0CFFFB0EE40AAF0EEF2
:100C300060AA51EC1A0BFFF77DFD2860BDEC0E8B0E
:100C400070BD000000000000000000400000000037
:100C50000000E03F10B52DED028B0446B0EE408A57
:100C600094ED0A1AF0EE410A94ED091AB0EE410A29
:100C700004F11C0104F12C00B0EE481AFFF774FFD8
:100C800004F1200104F12C0000F00AFBBDEC028B02
:100C900010BD000010B52DED028BF0EE408AB0EED5
:100CA000608A9FED490A28EE800ADFED480A80EE4F
:100CB000201A9FED470A30EE410ADFED430A68EE45
:100CC000200A9FED421AC0EE811A30EE610A4148B7
:100CD00080ED000A9FED3C0A28EE000A9FED3B1ACA
:100CE000C0EE010A9FED380AB0EE001A01EE600A6C
:100CF000D0ED000A30EE600A374880ED000A90ED32
:100D0000000ADFED330A30EEC00AB1EE400A334884
:100D100080ED000A2F4890ED000ADFED2D0A30EE3D
:100D2000C00AB1EE400A2D4880ED010A2A4890ED34
:100D3000000ADFED270A30EEC00AB1EE400A27486C
:100D400080ED020A234890ED000ADFED210A30EE23
:100D5000C00AB1EE400A214880ED030A1E4890ED1A
:100D6000000ADFED1B0A30EEC00AB1EE400A1B4854
:100D700080ED040A174890ED000ADFED150A30EE09
:100D8000C00AB1EE400A154880ED050A124890ED00
:100D9000000ADFED0F0A30EEC00AB1EE400A0F483C
:100DA00080ED060A0B4890ED000ADFED090A30EEEF
:100DB000C00AB1EE400A094880ED070A02F072FE4F
:100DC000BDEC028B10BD000000003443DB0F494036
:100DD0000000B442B4030020B0030020805400207F
:100DE00070B52DED048B0446F0EE408A0D46B0EE52
:100DF000609AB0EE418AF0EE490A2846B0EE680AE1
:100E000003F080FCB0EE480A2846FFF723FF214696
:100E1000284603F043FFBDEC048B70BD10B50248BB
:100E200001F0A6F910BD0000A856002010B5024838
:100E300001F09EF910BD00002C0400200146087846
:100E400010381823B0FBF3F20848805CC865032A09
:100E500005D908686FF30900001D886503E008687C
:100E60006FF309008865886D704700004C9A000890
:100E7000014600208A6A8B69CBB932B1012A0DD0B4
:100E8000022A03D0032A10D10EE000BFCB6A03F080
:100E90008073B3F1807F00D1012007E0CB6AB3F10A
:100EA000C07F00D1012001E000E000BF34E08B6989
:100EB000B3F5005F1AD132B1012A07D0022A03D05C
:100EC000032A11D10AE000BF01200EE0CB6A03F033
:100ED0008073B3F1807F00D1012006E0CB6AB3F1CB
:100EE000C07F00D1012000E000BF15E032B1012A2F
:100EF00005D0022A04D0032A0CD103E000BF00BFB2
:100F0000012008E0CB6A03F08073B3F1807F00D149
:100F1000012000E000BF00BF704730B504682468BE
:100F200024F4802405682C60046863608468402C85
:100F300004D10468A2600468E16003E00468A16071
:100F40000468E26030BD704710B5044608F038FB15
:100F500004EB0411014A1144086010BDD84E002072
:100F600070B504460D4608F02BFB04EB0411044A4F
:100F70001144086004EB041011460844856070BDFC
:100F8000D84E00204FF4E16007F036FD61E03148B3
:100F90000068401C2F490860002455E008F010FB51
:100FA00004EB04112C4A11440968884207D208F066
:100FB00007FB401E04EB0411274A1144086008F0A7
:100FC000FFFA04EB0411244A11440968401A04EBA7
:100FD00004111144486004EB0410114608444068B1
:100FE00004EB041111448968884220D904EB0410F1
:100FF00011460844D0F80D00401C04EB04111144C4
:10100000C1F80D0004EB041011460844D0F80D009F
:10101000B0F5FA7F16D9002004EB04111144C1F891
:101020000D00012004EB0411114408730AE00020B4
:1010300004EB0411084A1144C1F80D0004EB04113B
:1010400011440873601CC4B2062CA7DB022007F011
:10105000D3FC9CE7CC000020D84E0020014601EBD9
:101060000110044A1044007B012800D17047002081
:10107000FCE70000D84E00207047000010B52DEDB1
:10108000088BB0EE000AF0EE408AB7EE000AB0EE30
:10109000409AB7EE080AF0EE409A9FED730AB0EE60
:1010A00040AA9FED720AF0EE40AAB5EE000AB0EE3B
:1010B00040BA08F085FA00EE100AB8EE400ADFEDFB
:1010C0006C0A80EE201A6B4890ED000A31EE400A5F
:1010D000B0EE408AB0EE000AB4EEC08AF1EE10FA2B
:1010E00041D29FED650A654880ED090A9FED5E0AD1
:1010F00080ED0A0AB7EE000AFFF7ACFDB1EE080A70
:101100005F4880ED000A9FED5F0A80ED020A9FEDC7
:101110005E0A5E4880ED000A9FED5D0A80ED020ADE
:101120000146574802F078FD5A4807F05BFA5348E9
:10113000D0ED070A20EE200A80ED070A554807F097
:1011400051FA4E48D0ED080A20EE200A80ED080A38
:1011500090ED081AF0EE410A90ED071AB0EE410A40
:10116000FFF798FD7CE0B0EE000AB4EEC08AF1EE25
:1011700010FA35DBB0EE080AB4EEC08AF1EE10FAD0
:101180002ED29FED3D0A3D4880ED090A9FED370ABA
:1011900080ED0A0AB7EE000AFFF75CFDB2EE040A22
:1011A000374880ED000A9FED3A0A80ED020A9FED74
:1011B000350A364880ED000A9FED350A80ED020AB7
:1011C00001462F4802F028FD2C4890ED081AF0EE59
:1011D000410A90ED071AB0EE410AFFF75BFD3FE0D0
:1011E000B0EE080AB4EEC08AF1EE10FA35DBB1EECB
:1011F000020AB4EEC08AF1EE10FA2ED29FED1E0A5A
:101200001E4880ED090AB5EE000A80ED0A0AB7EE25
:10121000000AFFF71FFDB1EE080A194880ED000A29
:101220009FED1B0A80ED020A9FED160A174880ED1C
:10123000000A9FED190A80ED020A0146104802F0EB
:10124000EBFC0E4890ED081AF0EE410A90ED071AFB
:10125000B0EE410AFFF71EFD02E000200F490870C2
:10126000BDEC088B10BD0000AE47E13D295C8F3E10
:1012700000007A44C4030020000000005054002005
:10128000DC0000200000A04200008C42E8000020AA
:101290000000C842A05400200000F04214010020C9
:1012A00030B52DED108B83B005460C4695ED000A48
:1012B000DFED400A20EE200A10EE101A0846FFF774
:1012C000F6F941EC190B9FED3C1B9FED3D0B04F033
:1012D0005BFEB0EE40BAF0EE60BA95ED000A10EE9B
:1012E000101A0846FFF7E3F941EC1F0B9FED321B84
:1012F000B0EE4F0AF0EE6F0A04F046FEB0EE40DAB0
:10130000F0EE60DA9FED2C1B9FED2F0B04F03CFEFE
:10131000B0EE40EAF0EE60EA53EC1D2B51EC1E0BF0
:10132000FFF73DF841EC1C0B53EC1B2BFFF7D8F8F3
:1013300041EC1A0B53EC192BFFF74AF9CDE90001E8
:101340009DED000B51EC100BFFF7F4F908EE100ABD
:10135000BFEE000AB4EEC08AF1EE10FA04D29FED9F
:101360001C0A84ED000A20E0B7EE000AB4EEC08A41
:10137000F1EE10FA04DD9FED170A84ED000A14E087
:1013800018EE100AFFF793F941EC1A0BB0EE4A0A77
:10139000F0EE6A0A04F000F9B0EE409AF0EE609ABE
:1013A00051EC190BFFF7C6F9206003B0BDEC108BB0
:1013B00030BD0000AE47613E00000000000000406C
:1013C00000000080EB51C83F000000C0F528BC3F82
:1013D000DB0F49400000000010B502F0E3F90149BD
:1013E000086010BDD4030020364A1268521C354BE9
:1013F0001A600A784B7842EA0322C2F30A0202809A
:101400004A78D2108B7842EA4312C2F30A02428031
:101410008A789211CB7842EA83020B7942EA8322DE
:10142000C2F30A0282800A7952104B7942EAC3124F
:10143000C2F30A02C2804A79C2F3011282724A7967
:1014400012119308C3728A79CB7942EA032212B24D
:1014500082810A7A4B7A42EA032213B200F10C022B
:10146000C3818A7ACB7A42EA032213B200F10C02DA
:1014700003820B7B83744B7BC3748A7BCB7B42EAF6
:10148000032282820A7C4B7C42EA032212B202814E
:101490000288A2F5806212B202804288A2F58062C0
:1014A00012B242808288A2F5806212B28280C28823
:1014B000A2F5806212B2C2800289A2F5806212B2E5
:1014C00002817047CC03002010B5024692F820300C
:1014D000012B01D0022B06D1106840690843146823
:1014E0006061002010BD506A40F4802050620120ED
:1014F000F8E7F0B504460D461E4694F820702068C3
:101500008368A86800B900E000BF012F01D0022F56
:101510007CD103F0806030B903F0006018B903F0AB
:101520008050002873D0C3F30161022905D9606A95
:1015300040F4000060620120F0BD0120884030606E
:10154000A86860B9B5F800C0E86840EA4C5C20685B
:1015500000F5C07000EB0110C0F800C00FE0D5E945
:1015600001C040EACC00D5F80CC040EA0C00D4F829
:1015700000C00CF5C07C0CEB011CCCF80000D5F8C9
:1015800010C0206800F5C07000EB0110C0F804C066
:10159000287D01280ED1206800F5C07000EB0110F5
:1015A000406840F4807C206800F5C07000EB0110BA
:1015B000C0F804C0D079000692F806C040EA0C409A
:1015C00092F805C040EA0C2C10794CEA000C206817
:1015D00000F5C07000EB0110C0F80CC0D078000618
:1015E00092F802C040EA0C4092F801C040EA0C2098
:1015F00092F800C040EA0C00D4F800C00CF5C07CA2
:101600000CEB011CCCF80800206801E016E00FE0AC
:1016100000F5C07000EB0110006840F0010C20687C
:1016200000F5C07000EB0110C0F800C0002083E797
:10163000606A40F40010606201207DE7606A40F457
:1016400080206062012077E7F0B504460A462168F1
:1016500094F82050012D01D0022D7ED1424901F590
:101660000071086840F001000860086820F47C50B0
:1016700008600868566A40EA06200860107D00F09D
:101680001F06012000FA06F3C8699843C861A1F556
:101690000071D069C8B9D1F80C029843C1F80C02A6
:1016A000908880B2968940EA064601F51070576925
:1016B00040F83760108880B2168940EA064601F586
:1016C0001070576900EBC7004660D069012819D136
:1016D000D1F80C021843C1F80C02908880B2168829
:1016E00040EA064601F51070576940F83760908966
:1016F00080B2168940EA064601F51070576900EB82
:10170000C7004660906928B9D1F804029843C1F82F
:10171000040204E0D1F804021843C1F8040210697D
:1017200028B9D1F814029843C1F8140204E0D1F8A2
:1017300014021843C1F81402106A012804D1D1F828
:101740001C021843C1F81C02D1F8000220F001006D
:10175000C1F800020020F0BDFFE7606A40F480207D
:1017600060620120F7E7000000640040704770B538
:10177000044694F82050012D01D0022D7CD151B99E
:101780002068C06800F0030080B9606A40F400106F
:101790006062012070BD2068006900F0030028B974
:1017A000606A40F4001060620120F3E7206800F5F1
:1017B000D87000EB0110006800F0040090609068A1
:1017C00040B9206800F5D87000EB01100068400DAA
:1017D000106007E0206800F5D87000EB0110006889
:1017E000C0085060206800F5D87000EB0110006858
:1017F00000F002004008D060206800F5D87000EBCF
:101800000110406800F00F001061206800F5D870EA
:1018100000EB0110406800F47F40000A90612068EE
:1018200000F5D87000EB01104068000C5061206892
:1018300000F5D87000EB011080681870206800F582
:10184000D87000EB0110806800F47F40000A5870E7
:10185000206800F5D87000EB0110806800F47F006C
:10186000000C9870206800F5D87000EB01108068BB
:10187000000ED870206800E031E000F5D87000EB71
:101880000110C0681871206800F5D87000EB0110D5
:10189000C06800F47F40000A5871206800F5D870D5
:1018A00000EB0110C06800F47F00000C9871206804
:1018B00000F5D87000EB0110C068000ED87131B986
:1018C0002068C06840F020002668F06005E02068CD
:1018D000006940F020002668306100205AE7606A05
:1018E00040F480206062012054E72DE9F05F044657
:1018F0000025206846692068D0F804902068876831
:101900002068D0F80CA02068D0F810B02068D0F87B
:10191000188006F00100002855D007F00100C0B182
:1019200001202168886007F0020018B1204600F00D
:1019300004FC0EE007F0040010B145F4006508E077
:1019400007F0080010B145F4805502E0204600F091
:10195000F3FB07F48070C8B14FF480702168886091
:1019600007F4007018B1204600F0E9FB0EE007F420
:10197000806010B145F4005508E007F4006010B134
:1019800045F4804502E0204600F0D8FB07F48030A3
:10199000C8B14FF480302168886007F4003018B176
:1019A000204600F0CEFB0EE007F4802010B145F495
:1019B000004508E007F4002010B145F4803502E04E
:1019C000204600F0BDFB06F0080038B10AF0100018
:1019D00020B145F4007510202168C86006F00400AD
:1019E00040B10AF0080028B108202168C8602046EC
:1019F00000F00EFA06F0020038B12068C06800F06E
:101A0000030010B1204600F005FA06F0400038B19E
:101A10000BF0100020B145F48065102021680861AA
:101A200006F0200040B10BF0080028B10820216822
:101A30000861204600F04EFB06F0100038B1206827
:101A4000006900F0030010B1204600F044FB06F4EA
:101A5000003040B109F0100028B110202168486022
:101A6000204600F039FB06F4803040B109F0080050
:101A700028B1082021684860204600F063FB06F486
:101A8000004088B309F0040078B306F4807020B1F8
:101A900008F0010008B145F0010506F4007020B11E
:101AA00008F0020008B145F0020506F4806020B19C
:101AB00008F0040008B145F0040506F40060A0B188
:101AC00008F0700088B108F07000402817D006DCDC
:101AD00010280BD020280CD0302819D10CE0502829
:101AE00010D0602814D110E01DE019E045F0080581
:101AF0000FE045F010050CE045F0200509E045F049
:101B0000400506E045F0800503E045F4807500E0FF
:101B100000BF00BF2068806920F0700021688861E4
:101B20000420216848602DB1606A28436062204625
:101B3000FFF71CFEBDE8F09F70B504460CB901200C
:101B400070BD94F8200010B9204600F0AFF820686E
:101B5000006820F002002168086000F0FDFD0546E5
:101B60000DE000F0F9FD401B0A2808D9606A40F436
:101B700000306062052084F820000120E0E7206842
:101B8000406800F002000028EBD12068006840F0B7
:101B900001002168086000F0DFFD05460DE000F05F
:101BA000DBFD401B0A2808D9606A40F400306062FF
:101BB000052084F820000120C2E72068406800F07A
:101BC00001000028EBD0207E012806D120680068A3
:101BD00040F080002168086005E02068006820F07F
:101BE000800021680860607E012806D120680068B6
:101BF00040F040002168086005E02068006820F09F
:101C0000400021680860A07E012806D12068006895
:101C100040F020002168086005E02068006820F09E
:101C2000200021680860E07E012806D12068006855
:101C300020F010002168086005E02068006840F08E
:101C4000100021680860207F012806D12068006804
:101C500040F008002168086005E02068006820F076
:101C6000080021680860607F012806D120680068AC
:101C700040F004002168086005E02068006820F05A
:101C8000040021680860D4E902010843216908437F
:101C9000616908436168491E08432168C8610020E2
:101CA0006062012084F82000002049E710B586B06A
:101CB0000446142101A8FEF767FB4F4920688842BB
:101CC00041D14E480068401C4C49086008460068F5
:101CD00001280FD100BF002000904948006840F063
:101CE0000070474908600846006800F000700090E6
:101CF00000BF00BF00BF00200090414810380068BE
:101D000040F008003E49103908600846006800F0BD
:101D10000800009000BF00BF032001900220029045
:101D200000200390032004900920059001A9354864
:101D300000F004FC00220521142000F0BDFD142059
:101D400000F0AAFD55E030492068884251D100BF1B
:101D5000002000902A48006840F080602849086010
:101D60000846006800F08060009000BF00BF234874
:101D70000068401C214908600846006801280FD10E
:101D800000BF002000901E48006840F000701C4911
:101D900008600846006800F00070009000BF00BFB7
:101DA00000BF0020009016481038006840F0020084
:101DB0001349103908600846006800F002000090DE
:101DC00000BF00BF4FF4825001900220029000201B
:101DD0000390032004900920059001A90B4800F00E
:101DE000ADFB00220521402000F066FD402000F000
:101DF00053FD06B010BD0000006400400C00002040
:101E000040380240000C02400068004000040240DC
:101E10007047000010B504469548844224D1954B84
:101E2000954A0021FFF7A3FC93480068A0F2012027
:101E300030B1012805D0022804D0032812D102E0D5
:101E400000BF00BF00BF8C480078401E8B4908705F
:101E5000097801EB41018A4A02EBC100854905F08E
:101E6000B5FC00E000BF01E186488442FBD1864B0F
:101E7000864A0021FFF77BFC8448006865287CD1F6
:101E80000120FFF761F8804840787F49097840EAEF
:101E9000012000B27E4908807B48C0787A49897861
:101EA00040EA012000B27B490880774840797649B2
:101EB000097940EA012000B2774908867248C07962
:101EC0007149897940EA012000B273494886704817
:101ED000B0F9000000EE100AB8EEC00AB1EE400AF8
:101EE000DFED6E0A20EE200A084680ED000A694800
:101EF000B0F9000000EE100AB8EEC00ADFED670A84
:101F000020EE200A084680ED010AB0F9300000EE0C
:101F1000100AB8EEC00ADFED620A80EE201A6148AE
:101F200080ED001A0846B0F9320000EE100AB8EE53
:101F3000C00ADFED5B0A80EE201A5B4880ED001AD4
:101F400058480068FEF7B3FB534AC2E90201104645
:101F500090ED021BB0EE410AF0EE610A9FED531BBB
:101F600053EC112B51EC100BFEF7B4FB14D24A4882
:101F700090ED021BB0EE410A00E075E0F0EE610A60
:101F80009FED4C1B53EC112B51EC100BFEF707FA95
:101F9000414AC2E9020121E03F4890ED021BB0EE48
:101FA000410AF0EE610A9FED451B53EC112B51ECF9
:101FB000100BFEF7A7FB11D2374890ED021BB0EED5
:101FC000410AF0EE610A9FED3B1B53EC112B51ECE3
:101FD000100BFEF785FA304AC2E90201324890ED53
:101FE000000A3848D0ED000A30EE600ADFED360A0C
:101FF000B4EEE00AF1EE10FA05DD34480068401E48
:102000003249086013E0284890ED000A2D48D0EDD1
:10201000000A30EE600ADFED2E0AB4EEE00AF1EEBF
:1020200010FA04D229480068401C28490860274853
:1020300000684FF4B472504300EE100AB8EEC00AC4
:102040001948D0ED000A30EE200A10EE101A0846AA
:10205000FEF72DFB104AC2E90401134890ED000A77
:10206000184880ED000A00E000BF00BF10BD00006E
:10207000605500209C00002018560020AC00002075
:10208000184E002088550020A40000204C56002047
:10209000B4000020B6000020E04D002029AE6A3DCB
:1020A0000000C842B8000020BC0000200000000072
:1020B00000C072C0000000000080764000000000F8
:1020C00000C07240C00000200000A543B000002006
:1020D0000000A5C370477047704770B5044694F878
:1020E0002000012822D1022084F820002068006806
:1020F00020F001002168086000F02EFB05460DE08D
:1021000000F02AFB401B0A2808D9606A40F400301E
:102110006062052084F82000012070BD20684068BE
:1021200000F001000028EBD16062F6E7606A40F43D
:10213000002060620120F0E77047704770477047E9
:10214000704770477047014691F83500022803D068
:102150008020486501207047052081F83500086817
:10216000006820F001000A6810600020F3E700001A
:10217000F8B50446002000908C4800684FF41651D2
:10218000B0FBF1F7A56D2E6894F85C10082088402C
:10219000304098B12068006800F0040070B12068F9
:1021A000006820F004002168086094F85C100820A2
:1021B0008840A860606D40F00100606594F85C1094
:1021C00001208840304068B12068406900F08000FC
:1021D00040B194F85C1001208840A860606D40F028
:1021E0000200606594F85C1004208840304068B1BB
:1021F0002068006800F0020040B194F85C100420F0
:102200008840A860606D40F00400606594F85C1040
:1022100010208840304078B32068006800F0080043
:1022200050B394F85C1010208840A86020680068C3
:1022300000F4802080B12068006800F4002028B9F4
:10224000206CC8B12046216C884715E0A06C98B17D
:102250002046A16C88470FE02068006800F4807079
:1022600028B92068006820F0080021680860206C08
:1022700010B12046216C884794F85C1020208840DB
:102280003040002865D02068006800F01000002869
:102290005FD094F85C1020208840A86094F8350046
:1022A000052828D12068006820F016002168086001
:1022B0002068406920F0800021684861206C08B9DE
:1022C000A06C28B12068006820F008002168086030
:1022D00094F85C103F208840A86000BF002084F87C
:1022E000340000BF012084F83500206D10B1204675
:1022F000216D8847F8BD2068006800F4802080B117
:102300002068006800F4002028B9606C10B12046F5
:10231000616C88471DE0E06BD8B12046E16B8847CF
:1023200017E02068006800F4807068B920680068D1
:1023300020F010002168086000BF002084F83400FD
:1023400000BF012084F83500E06B10B12046E16B3E
:102350008847606D38B3606D00F00100F0B1052072
:1023600084F835002068006820F0010021680860CA
:1023700000BF0098401C0090B84200D905E02068DA
:10238000006800F001000028F3D100BF00BF00206A
:1023900084F8340000BF012084F83500E06C10B1EF
:1023A0002046E16C884700BFA4E700001C00002025
:1023B0002DE9F0410446002500F0CEF9074614B996
:1023C0000120BDE8F081606A00B100BF00BF0020BD
:1023D00084F8340000BF022084F8350020680068CB
:1023E00020F00100216808600AE000F0B5F9C01B88
:1023F000052805D920206065032084F83500E0E732
:102400002068006800F001000028EED1206805680F
:1024100021480540D4E901010843E16808432169E6
:10242000084361690843A1690843E1690843216AD7
:1024300008430543606A042803D1D4E90B0108432B
:102440000543206805602068456925F00705606A36
:102450000543606A04280DD1A06A0543E06A48B1CB
:102460002046FEF705FD28B140206065012084F874
:102470003500A6E7206845612046FEF7DFFC0646EA
:1024800094F85C103F208840B06000206065012017
:1024900084F83500002094E73F8010F02DE9F047E4
:1024A00004460D4616461F464FF00008D4F85890D3
:1024B00000BF94F83400012802D10220BDE8F08763
:1024C000012084F8340000BF94F8350001282BD196
:1024D000022084F83500002060653B4632462946DC
:1024E0002046FEF71AFD94F85C103F208840C9F89A
:1024F00008002068006840F0160021680860206825
:10250000406940F0800021684861206C28B1206853
:10251000006840F00800216808602068006840F00A
:1025200001002168086006E000BF002084F8340044
:1025300000BF4FF002084046C0E70000F8B5024671
:102540000B460025002400200021DCE0012606FACD
:1025500001F51E6806EA0504AC4273D15E68022EDE
:1025600002D05E68122E13D1CF0802F1200656F871
:1025700027004E07F70E0F26BE40B0434F07FF0E51
:102580001E69BE403043CF0802F1200646F82700FE
:1025900010684F000326BE40B0431E7906F00306C4
:1025A0004F00BE40304310605E68012E08D05E6868
:1025B000022E05D05E68112E02D05E68122E13D155
:1025C00090684F000326BE40B0434F00DE68BE4017
:1025D00030439060506801268E40B0431E79C6F3A8
:1025E00000168E4030435060D0684F000326BE4036
:1025F000B0434F009E68BE403043D0605E6806F036
:102600008056B6F1805F7DD100BF00260096404E17
:10261000366846F480463E4F3E603E46366806F4D5
:102620008046009600BF00BF3A4E8F0856F827003C
:102630008E07370F0F26BE40B043374EB24202D14D
:10264000002624E05EE0354EB24201D101261EE0B4
:10265000334EB24201D1022619E0324EB24201D1CC
:10266000032614E0304EB24201D104260FE02F4E73
:10267000B24201D105260AE02D4EB24201D1062612
:1026800005E02C4EB24201D1072600E008268F0754
:102690003F0FBE4030431F4E8F0846F82700264E9E
:1026A0003068A0435E6806F48036B6F5803F00D1FE
:1026B0002043214E3060361D3068A0435E6806F42A
:1026C0000036B6F5003F00D120431B4E361D30606A
:1026D000361D3068A0435E6806F48016B6F5801F8C
:1026E00000D12043144E08363060361D3068A043B8
:1026F0005E6806F40016B6F5001F00D120430E4EAA
:102700000C363060491C1029FFF420AFF8BD0000E2
:1027100044380240083801400000024000040240F2
:1027200000080240000C0240001002400014024069
:1027300000180240001C0240003C014002461369A0
:102740000B400BB1012000E0002070470AB181610D
:1027500001E00B0483617047014800687047000086
:102760001000002003480068034909780844014923
:1027700008607047100000201800002010B50D48B8
:10278000006840F400700B4908600846006840F497
:10279000806008600846006840F48070086003208C
:1027A00000F0C8F8002000F007F800F04BF8002017
:1027B00010BD0000003C024070B588B00446002502
:1027C000002600222146192000F076F8192000F09A
:1027D00063F800BF002001901648006840F0010037
:1027E000144908600846006800F00100019000BF2D
:1027F00000BF02A903A800F071F900F0A7F9450095
:102800000D48B5FBF0F0461E0C480D49086040F23B
:10281000E7310B48C160466000210161816000F032
:102820004DFC20B9064800F092FC08B070BD0120B4
:10283000FBE700004438024040420F000000014026
:10284000CC04002008B500BF0020009011480068AB
:1028500040F480400F4908600846006800F480405A
:10286000009000BF00BF00BF00200090081F00685C
:1028700040F08050091F08600846006800F0805052
:10288000009000BF00BF00220F21901E00F014F83E
:1028900008BD00004438024001460846002809DB14
:1028A00000F01F0301229A4043099B0003F1E0233B
:1028B000C3F8002100BF70472DE9F05F80460D4648
:1028C0001646002702F040FE074639462A463346A0
:1028D00001F00700C0F1070ABAF1040F02D94FF066
:1028E000040A01E0C0F1070AD14600F1040ABAF176
:1028F000070F02D24FF0000A01E0A0F1030AD4460C
:102900004FF0010A0AFA09FAAAF1010A0AEA020AD0
:102910000AFA0CFA4FF0010B0BFA0CFBABF1010BAE
:102920000BEA030B4AEA0B042146404602F014FE70
:10293000BDE8F09F00BF00F00702064B19684FF694
:10294000FF031940044B0B4343EA0221014B19607A
:1029500000BF70470CED00E00000FA0570B50446BA
:102960000D460CB9012070BD5848006800F00F00FA
:10297000A84209D255490D700846006800F00F00C2
:10298000A84201D00120EEE7207800F002000228E2
:102990001DD1207800F00400042805D14C480068BF
:1029A00040F4E0504A490860207800F00800082808
:1029B00005D14748006840F46040454908604448F4
:1029C000006820F0F000A1680843414908602078C1
:1029D00000F00100A8B36068012807D13C4808381E
:1029E0000068C0F34040B8B90120BCE76068022825
:1029F00002D06068032807D1354808380068C0F362
:102A0000406048B90120AEE7314808380068C0F39B
:102A1000400008B90120A6E72D48006820F0030017
:102A2000616808432A490860FFF796FE064609E0F8
:102A3000FFF792FE801B41F28831884202D90320C1
:102A400091E707E02248006800F00C006168B0EBF5
:102A5000810FEDD11D48006800F00F00A84209D990
:102A60001A490D700846006800F00F00A84201D016
:102A7000012078E7207800F00400042807D11448EA
:102A8000006820F4E050E1680843114908602078AC
:102A900000F00800082808D10D48006820F46040C4
:102AA000216940EAC1000A49086000F05FF808495E
:102AB0000968C1F30311074A515CC8400649086020
:102AC0000020FFF779FE00204DE70000003C0240A7
:102AD00008380240549A00081C0000200F220260AF
:102AE0000D4A126802F0030242600B4A126802F0BB
:102AF000F0028260084A126802F4E052C260064A9C
:102B0000126802F46042D2080261044A126802F0BC
:102B10000F020A607047000008380240003C024083
:102B200001480068704700001C00002000B5FFF756
:102B3000F7FF04490968C1F38221034A515CC84088
:102B400000BD000008380240649A000800B5FFF795
:102B5000E7FF04490968C1F34231034A515CC840A8
:102B600000BD000008380240649A00082DE9F047D3
:102B7000002400250026A1462548006800F00C002E
:102B800020B1042805D008283AD105E0DFF8849068
:102B900039E0DFF8849036E01D48001F006800F03F
:102BA0003F041B48001F006800F4800078B11A48F9
:102BB0001749091F0968C1F38811A0FB017001467C
:102BC000224600233846FDF795FB05460EE01148E6
:102BD0000F49091F0968C1F38811A0FB0170014664
:102BE000224600233846FDF785FB05460848001FAE
:102BF0000068C0F30140401C4600B5FBF6F902E056
:102C0000DFF8109000BF00BF4846BDE8F087000025
:102C1000083802400024F40000127A00F8B5044697
:102C20000CB90120F8BD207800F00100002874D014
:102C3000F948006800F00C0004280DD0F648006840
:102C400000F00C00082813D1F348001F006800F4BE
:102C50008000B0F5800F0BD1EF4808380068C0F352
:102C60004040002859D06068002856D10120D9E79B
:102C700000BF6068B0F5803F08D1E74808380068B9
:102C800040F48030E449083908601EE06068B0F51F
:102C9000A02F0DD1E0480838006840F48020DE49BC
:102CA000083908600846006840F4803008600CE08D
:102CB000D9480838006820F48030D74908390860BE
:102CC0000846006820F48020086000BF606890B16A
:102CD000FFF742FD054606E0FFF73EFD401B642876
:102CE00001D903209EE7CC4808380068C0F3404073
:102CF0000028F1D011E0FFF72FFD054606E0FFF7B1
:102D00002BFD401B642801D903208BE7C2480838FB
:102D10000068C0F340400028F1D1207800F00200A4
:102D200002285FD1BC48006800F00C0058B1BA48D6
:102D3000006800F00C0008281CD1B748001F00688C
:102D400000F48000B0B9B44808380068C0F340000F
:102D500020B1E068012801D0012063E7AE480838BF
:102D6000006820F0F800216940EAC100AA4908394A
:102D7000086037E0E06800B30120A8490860FFF769
:102D8000EBFC054606E0FFF7E7FC401B022801D9F3
:102D9000032047E7A04808380068C0F34000002837
:102DA000F1D09D480838006820F0F800216940EA19
:102DB000C10099490839086014E00020974908606B
:102DC000FFF7CAFC054606E0FFF7C6FC401B0228D9
:102DD00001D9032026E7904808380068C0F3400076
:102DE0000028F1D1207800F0080008282CD1606973
:102DF000A8B101208A490860FFF7AEFC054606E04D
:102E0000FFF7AAFC401B022801D903200AE78248E9
:102E10006C300068C0F340000028F1D014E00020BE
:102E20007F490860FFF798FC054606E0FFF794FC31
:102E3000401B022801D90320F4E677486C30006873
:102E4000C0F340000028F1D1207800F004000428ED
:102E500070D1002670483830006800F0805090B97A
:102E600000BF002000906C483830006840F080506F
:102E70006949383108600846006800F080500090C9
:102E800000BF00BF01266748006800F48070B0B939
:102E90006448006840F4807062490860FFF75CFC99
:102EA000054606E0FFF758FC401B022801D9032025
:102EB000B8E65C48006800F480700028F2D000BFDB
:102EC000A068012808D154486830006840F001002B
:102ED0005149683108601DE0A06805280DD14E48B1
:102EE0006830006840F004004B49683108600846CB
:102EF000006840F0010008600CE047486830006856
:102F000020F001004449683108600846006820F05C
:102F10000400086000BFA068A8B1FFF71DFC0546CB
:102F200009E0FFF719FC401B41F28831884202D9C1
:102F3000032077E626E0384868300068C0F3400098
:102F40000028EED013E0FFF707FC054608E0FFF786
:102F500003FC401B41F28831884201D9032061E61D
:102F60002D4868300068C0F340000028EFD1012EE2
:102F700007D129483830006820F080502649383180
:102F8000086000BFA069B8B32348006800F00C00D7
:102F900008285ED0A069022846D100201F49086693
:102FA000FFF7DAFB054606E0FFF7D6FB401B0228D9
:102FB00001D9032036E6184808380068C0F340609D
:102FC0000028F1D1D4E907010843616A40EA811180
:102FD0000122A06AC2EB500041EA00412C20005DB2
:102FE00041EA00600C49091F086001200B4908668E
:102FF000FFF7B2FB054607E02DE0FFF7ADFB401BF6
:10300000022801D903200DE6034808380068C0F300
:1030100040600028F1D01EE008380240000047421E
:10302000800E47420070004000200C490866FFF700
:1030300093FB054606E0FFF78FFB401B022801D9F2
:103040000320EFE506480068C0F340600028F2D195
:1030500001E00120E6E50020E4E500000000474231
:10306000003802407047704710B5024600BF92F822
:103070003C00012801D1022010BD012082F83C0053
:1030800000BF022082F83D00106843681068846821
:1030900023F070030868034324F080044868044365
:1030A0001068436010688460012082F83D0000BF12
:1030B000002082F83C0000BF00BFDDE710B50446E9
:1030C0000CB9012010BD94F83D0028B9002084F807
:1030D0003C00204600F00CF8022084F83D00211D41
:1030E000206801F06FFD012084F83D000020E9E731
:1030F00008B50A4A016891420FD100BF0021009132
:103100000749096841F02001054A11601146096824
:1031100001F02001009100BF00BF08BD0014004075
:10312000403802400146022081F83D00086880686E
:1031300000F00702062A05D00868006840F0010088
:103140000B681860012081F83D000020704701469F
:103150000868C06840F001000B68D86008688068A3
:1031600000F00702062A05D00868006840F0010058
:103170000B681860002070470146022081F83D006E
:1031800000BF0868006A41F21112104050B9086887
:10319000006A9210104028B90868006820F0010009
:1031A0000A68106000BF012081F83D0000207047D0
:1031B000704710B5044620680069C0F34000D8B1DC
:1031C0002068C068C0F34000B0B16FF00200216811
:1031D0000861012020772068806900F0030018B1A1
:1031E0002046FFF7E5FF05E0204600F0ADF8204659
:1031F00000F0ABF80020207720680069C0F3800061
:10320000D8B12068C068C0F38000B0B16FF004008E
:1032100021680861022020772068806900F44070EE
:1032200018B12046FFF7C4FF05E0204600F08CF8F7
:10323000204600F08AF80020207720680069C0F35B
:10324000C000D8B12068C068C0F3C000B0B16FF052
:10325000080021680861042020772068C06900F018
:10326000030018B12046FFF7A3FF05E0204600F059
:103270006BF8204600F069F800202077206800698C
:10328000C0F30010D8B12068C068C0F30010B0B11E
:103290006FF0100021680861082020772068C0695D
:1032A00000F4407018B12046FFF782FF05E0204689
:1032B00000F04AF8204600F048F800202077206807
:1032C000006900F0010058B12068C06800F00100FA
:1032D00030B16FF0010021680861204600F036F837
:1032E00020680069C0F3C01058B12068C068C0F3FE
:1032F000C01030B16FF08000216808612046FFF7F0
:10330000B1FE20680069C0F3801058B12068C06821
:10331000C0F3801030B16FF0400021680861204692
:1033200000F020F820680069C0F3401058B1206810
:10333000C068C0F3401030B16FF020002168086110
:103340002046FFF790FE10BD7047704710B5044649
:1033500003492068884201D1FFF704FA10BD00003C
:1033600000000140704770472DE9F047044620688F
:1033700005682068C668206847694FF00008C146A4
:1033800005F00F08B8F1000F0AD105F0200038B1A0
:1033900006F0200020B1204601F0FAFDBDE8F087DC
:1033A000B8F1000F6ED007F0010018B906F4907064
:1033B000002867D005F0010030B106F4807018B124
:1033C000E06B40F00100E06305F0040030B107F06D
:1033D000010018B1E06B40F00200E06305F002006C
:1033E00030B107F0010018B1E06B40F00400E06379
:1033F00005F0080030B107F0010018B1E06B40F0B3
:103400000800E063E06B70B305F0200028B106F01F
:10341000200010B1204601F0BBFD20684069C0F3D8
:103420008019E06B00F0080010B9B9F1000F23D04B
:10343000204601F083FD2068406900F040004028EC
:1034400016D12068406920F0400021684861606B17
:1034500050B11748616B0865606BFEF774FE10B1E0
:10346000606B016D88470CE02046FFF77CFF08E0A9
:103470002046FFF778FF04E02046FFF774FF0020A6
:10348000E0638BE705F0800030B106F0800018B1F2
:10349000204601F085FF81E705F0400030B106F0DD
:1034A000400018B1204601F059FD77E700BF75E7ED
:1034B000854E000810B504460CB9012010BDA06966
:1034C00000B100E000BF94F8390028B9002084F86A
:1034D0003800204600F028F8242084F839002068BD
:1034E000C06820F400502168C860204601F0A4FDA7
:1034F0002068006920F490402168086120684069D4
:1035000020F02A00216848612068C06840F400501B
:103510002168C8600020E063202084F8390084F826
:103520003A000020CAE7000010B586B00446142116
:1035300001A8FCF729FF5F492068884259D100BFE4
:10354000002000905C48006840F010005A49086074
:103550000846006800F01000009000BF00BF00BFE8
:103560000020009054481438006840F0010052498F
:10357000143908600846006800F00100009000BFA0
:1035800000BF4FF4C0600190022002900120039020
:10359000032004900720059001A94848FEF7CEFFBC
:1035A0004748484908604FF000604860002145489E
:1035B0008160C1604FF480610161002141618161DE
:1035C0004FF48071C161002101624162FEF7F0FE9B
:1035D00008B1FDF751FD00BF3A486063846300BF46
:1035E000002205212520FFF767F92520FFF754F970
:1035F0005DE035492068884259D100BF0020009025
:103600002D48001F006840F400302B49091F086056
:103610000846006800F40030009000BF00BF00BF03
:103620000020009024481438006840F00800224927
:10363000143908600846006800F00800009000BFD8
:1036400000BF60200190022002900120039003201F
:1036500004900720059001A91C48FEF76FFF1C4845
:103660001C4908604FF000604860002119488160E3
:10367000C1604FF4806101610021416181614FF4BB
:103680008071C161002101624162FEF791FE08B1C3
:10369000FDF7F2FC00BF0F486063846300BF0022A7
:1036A00005212620FFF708F92620FFF7F5F806B0D8
:1036B00010BD0000001001404438024000000240EC
:1036C000406402402C04002000440040000C0240F2
:1036D00088600240A856002077B581B004461546A0
:1036E00094F83A00202850D1029800B115B9012071
:1036F00004B070BD00BF94F83800012801D1022049
:10370000F6E7012084F8380000BF0298A062A58582
:103710000020E063222084F83A001D48616BC863F2
:103720001C48616B08641C48616BC8640020616BB5
:10373000086502AE32682368191D2B46606BFEF7E0
:10374000ADFE00BF00200090206800680090206857
:103750004068009000BF00BF00BF002084F8380020
:1037600000BF2068C06840F480702168C86020688D
:10377000406940F00100216848612068406940F0DC
:103780004000216848610020B2E70220B0E7000055
:10379000E94E00082F4F0008994E00087047704707
:1037A0007047000010B5002240212848FEF7CEFFE8
:1037B000002027490860012003F0C2FE00BF8021DD
:1037C0002248FEF7BBFF0028F9D12249087023E008
:1037D000012240211D48FEF7B9FF1D480068400046
:1037E0001B490860012003F0ABFE0022402117486E
:1037F000FEF7ACFF80211548FEF7A0FF20B114486A
:103800000068401C12490860012003F099FE11482D
:103810000078401C0F4908700E4800781828D7DB44
:10382000012240210948FEF791FF0948006880F411
:10383000000007490860012003F082FE00224021B9
:103840000248FEF783FF0248006810BD00080240EE
:10385000E0030020E403002000BFFEE700B585B0D0
:1038600014216846FCF790FD402000900120019053
:1038700002900220039069460848FEF75FFE802010
:1038800000900020019001200290022003906946E0
:103890000248FEF753FE05B000BD000000080240DC
:1038A00030B52DED108B83B004469FED560A8DED9B
:1038B000020A9FED550A8DED010A94ED000AB0EE63
:1038C000408A94ED010AF0EE409A94ED020AB0EEBF
:1038D00040FA94ED030AF0EE408A94ED040AF0EE0B
:1038E00040FA94ED050AB0EE409A38EE290ADFED71
:1038F000450AB4EEE00AF1EE10FA43DCB0EE000A3D
:10390000CFEE800A10EE905A2846FCF7D0FE41EC2C
:103910001E0B9FED3E1BB0EE4E0AF0EE6E0A02F05B
:1039200033FBB0EE40CAF0EE60CA18EE100AFCF7A6
:10393000BEFE41EC1E0B9FED351BB0EE4E0AF0EEC5
:103940006E0A02F021FBB0EE40DAF0EE60DA53ECE2
:103950001C2B51EC1D0BFCF722FD41EC1B0BB0EEB8
:103960004B0AF0EE6B0A03F037F9B0EE40AAF0EE26
:1039700060AA9FED280B53EC102B51EC1A0BFCF7AF
:10398000C1FE07D225A001F0BFFD002003B0BDECB1
:10399000108B30BD38EE4F0ADFED1B0AB4EEE00AA3
:1039A000F1EE10FA04D223A001F0AEFD0020EDE705
:1039B000F5EEC08AF1EE10FA06D9B7EE000AF4EE81
:1039C000C08AF1EE10FA04DD20A001F09DFD002078
:1039D000DCE7B5EEC09AF1EE10FA04D222A001F0B5
:1039E00093FD0020D2E7B2EE040AB4EEC09AF1EEE5
:1039F00010FA04DD24A001F087FD0020C6E70120B5
:103A0000C4E7000052B89E3E8FC2F53D00000000A2
:103A100000000040000000400AD7D33F47616974AE
:103A2000206F766572657874656E6473206C656767
:103A3000000000004761697420756E6465726578E6
:103A400074656E6473206C6567000000466C69677E
:103A500068742070657263656E7420697320696E86
:103A600076616C69640000004672657175656E630D
:103A7000792063616E6E6F74206265206E65676188
:103A800074697665000000004672657175656E6345
:103A90007920697320746F6F206869676820283EF9
:103AA0003130290070B50546002437E005EB84006D
:103AB00090ED000A3D4800EB840080ED000A3B4990
:103AC00001EB840191ED001AF0EE410A37492031F3
:103AD00001EB840191ED001AB0EE410A04EBC40140
:103AE000334A02EBC10000F029FA04EBC401304A6A
:103AF00002EBC10191ED081AF0EE410A02F59C615A
:103B000001EB840191ED001AB0EE410A04EBC4020E
:103B1000284901EBC20000F011FA641C082CC5DB37
:103B2000234C94EDCE0ABDEEC00A10EE104A23B22B
:103B30001F4C94EDBC0ABDEEC00A10EE104A22B232
:103B40001B4C94EDAA0ABDEEC00A10EE104A21B239
:103B5000174C94ED980ABDEEC00A10EE104A20B240
:103B600000F040FD134C94ED860ABDEEC00A10EE45
:103B7000104A23B20F4C94ED740ABDEEC00A10EE49
:103B8000104A22B20A4C94EDF20ABDEEC00A10EEC1
:103B9000104A21B2064C94EDE00ABDEEC00A10EEC8
:103BA000104A20B200F050FD70BD0000D05300203C
:103BB000504F00209051002010B500241AE004EB73
:103BC000C4010E4A02EBC100DFED0D0A9FED0D0AA4
:103BD0000D4A002100F0BCFA04EBC4020B4901EBD2
:103BE000C200DFED070A9FED0A0A0A4A002100F031
:103BF000AFFA641C082CE2DB10BD0000504F00201F
:103C0000000000000000FA436C9A00089051002068
:103C100000007A46789A000870B505460E460024E2
:103C200031E004EBC401194A02EBC100294600F05F
:103C30007DFA04EBC402164901EBC200314600F0E4
:103C400075FAE0B203F0B6FD90ED030A114800EBFF
:103C5000840080ED000AE0B203F0ACFDB0F904008E
:103C600000EE100AB8EEC00ADFED0B0A20EE200AC3
:103C7000F3EE0E0A80EE201A0648403000EB840076
:103C800080ED001A641C082CCBDB70BD504F002067
:103C900090510020F0530020DB0F494010B51A4826
:103CA0001A49086003204860002118488160C160FB
:103CB0004FF4002101614FF4401141610021017670
:103CC00041768176C17601774177FDF735FF08B1FE
:103CD000FDF7D2F900200E49086048608860C8608E
:103CE0000861486188610120C86108620E2048624D
:103CF0000648FDF7A9FC0548FEF7EFF90221034845
:103D0000FDF7E2FB10BD000000640040605500209C
:103D1000B055002010B51A481A49086003204860C1
:103D2000002118488160C1604FF4302101610021F9
:103D30004161017641768176C17601774177FDF761
:103D4000FBFE08B1FDF798F900200F4908604860B4
:103D50008860C86008610E204861002088610120E9
:103D6000C86108620E2048620648FDF76DFC0548F0
:103D7000FEF7B3F902210348FDF7A6FB10BD0000D2
:103D80000068004088550020D855002008B500BFC5
:103D9000002000901648006840F4001014490860A4
:103DA0000846006800F40010009000BF00BF00BF8C
:103DB000002000900846006840F480000860084633
:103DC000006800F48000009000BF00BF00220521C1
:103DD0003A20FEF771FD3A20FEF75EFD0022052134
:103DE0001020FEF769FD1020FEF756FD08BD00000B
:103DF0003038024008B500BF002000902C48006811
:103E000040F010002A4908600846006800F01000E1
:103E1000009000BF00BF00BF00200090084600686F
:103E200040F0800008600846006800F080000090C4
:103E300000BF00BF00BF002000900846006840F0AF
:103E4000020008600846006800F00200009000BF11
:103E500000BF00BF002000900846006840F0080046
:103E600008600846006800F00800009000BF00BF2E
:103E700000BF002000900846006840F00400086081
:103E80000846006800F00400009000BF00BF00BFBB
:103E9000002000900846006840F0010008600846D5
:103EA000006800F00100009000BF00BF08BD0000E6
:103EB000303802401CB50020009001900D480E499A
:103EC00008605320486000210B4881600121C160D7
:103ED00000218161FFF7F2F808B1FDF7CDF800206D
:103EE0000090019069460448FFF7BEF808B1FDF75D
:103EF000C3F81CBD001400408C04002010B50B4812
:103F00000B4908604FF4E1304860002108488160A7
:103F1000C16001610C21416100218161C161FFF734
:103F2000C9FA08B1FDF7A8F810BD00000010014063
:103F3000EC03002000BFFEE770470000B0EE401A1F
:103F400010B99FED790A704790ED100A80ED110AC3
:103F500090ED0F0A80ED100AC0ED060A80ED071AF9
:103F600030EEC10A80ED0F0A0178002975D190ED7D
:103F7000010AD0ED0F1A20EE210A80ED090A90ED1A
:103F80000A0AD0ED021A90ED0F2A01EE820A80EDA6
:103F90000A0A90ED0D0A80ED0E0A90ED0C0A80EDF4
:103FA0000D0A90ED0F0AD0ED101A30EE610A80ED87
:103FB0000C0A90ED030AD0ED0C1A20EE210A80EDD8
:103FC0000B0A90ED0A0AD0ED051AB4EEE10AF1EE03
:103FD00010FA04DD90ED050A80ED0A0A10E090ED7C
:103FE0000A0AD0ED051AF1EE611AB4EEE10AF1EE1B
:103FF00010FA05D290ED050AB1EE400A80ED0A0AEA
:1040000090ED090AD0ED0A1A30EE210AD0ED0B1A14
:1040100030EE210A80ED080A90ED080AD0ED041A6E
:10402000B4EEE10AF1EE10FA04DD90ED040A80ED41
:10403000080A76E090ED080AD0ED041AF1EE611A54
:10404000B4EEE10AF1EE10FA6BD290ED040AB1EE93
:10405000400A80ED080A64E0FFE70178012960D199
:1040600090ED0F0AD0ED101A30EE610AD0ED011A72
:1040700020EE210A80ED090A90ED020AD0ED0F1A18
:1040800020EE210A80ED0A0A90ED0D0A80ED0E0A5D
:1040900090ED0C0A80ED0D0A90ED0F0AD0ED101A8C
:1040A000B0EE002A02EE610AD0ED111A30EE210ABC
:1040B00080ED0C0A90ED030AD0ED0C1A20EE210AD7
:1040C00080ED0B0A90ED090AD0ED0A1A30EE210AB4
:1040D000D0ED0B1A30EE210AD0ED081A30EE210A8D
:1040E00080ED080A90ED080AD0ED041AB4EEE10A5A
:1040F000F1EE10FA04DD90ED040A80ED080A10E0FC
:1041000090ED080AD0ED041AF1EE611AB4EEE10A5E
:10411000F1EE10FA05D290ED040AB1EE400A80EDFE
:10412000080A90ED080A0EE70000000000B101B98E
:10413000704791ED000A80ED010A91ED010A80EDD2
:10414000020A91ED020A80ED030A00BFF0E70000C9
:1041500000B102B97047017092ED001A80ED011AAA
:1041600092ED011A80ED021A92ED021A80ED031A07
:1041700080ED040AC0ED050A9FED0C1A80ED0E1AC1
:1041800080ED0D1A80ED0C1A9FED081A80ED081ACB
:1041900080ED0B1A80ED0A1A80ED091A80ED111AD4
:1041A00080ED101A80ED0F1A00BFD3E70000000069
:1041B0002DED108BFDF710F90D20D8490870084639
:1041C000007800EB4000D64A02EB00113022D548BF
:1041D000FCF7C1F8FFF7F0FCD349D448FFF71CFD0A
:1041E000FDF7FAF800BF00BFD1480078CB49097845
:1041F00088420AD0C948007800EB4000C84A02EB68
:1042000000113022C748FCF7A6F8C4480078C84916
:10421000087000F0C7FBC14800780E2808D2DFE81C
:1042200000F008534781A3AF3BFD07B207750707AE
:104230006EE1B1EE0C0ABD4880ED000A9FEDBD0AAB
:1042400080ED020A9FEDBC0AB74880ED000A9FEDA1
:10425000BB0A80ED020A0146B448FFF7DDFC9FED82
:10426000B80AB04880ED090A9FEDB60A80ED0A0A47
:10427000B7EE000AFCF7EEFC0021AA4800F00EFDA4
:10428000A84890ED081AF0EE410A90ED071AB0EE3A
:10429000410AFCF7FFFC3BE1F6EE001A9FEDA81A7D
:1042A000F6EE000A9FEDA60A9E4803F087F92FE17B
:1042B000DFEDA31AB6EE001AF6EE000A9FEDA00A93
:1042C000984803F07BF923E1B2EE080A974880EDA5
:1042D000000A9FED980A80ED020A9FED960A924827
:1042E00080ED000A9FED930A80ED020A01468F4897
:1042F000FFF792FCF6EE001A9FED911AF6EE000A17
:104300009FED8F0A874803F059F901E1F6EE001A94
:104310009FED8B1AF6EE000A9FED890A814803F0A3
:104320004DF9F5E09FED880A804880ED000A9FED89
:10433000810A80ED020A9FED7F0A7B4880ED000A2A
:104340009FED7E0A80ED020A01467848FFF764FC83
:10435000F6EE001AB6EE081AF5EE000A9FED780A9E
:10436000704803F02BF9D3E0DFED751A9FED741A56
:10437000DFED730A9FED720A6A4803F01FF9C7E088
:10438000FCF77CFEC4E000249FED6D0A654880EDDB
:10439000090A9FED6E0A80ED0A0AB7EE000AFCF7E3
:1043A00059FC9FED6B0AB0EE408AFEF7D5F9001B71
:1043B00000EE100AB8EE400A20EE080ADFED650AAA
:1043C00080EE201AF0EE418A9FED630A28EE800A03
:1043D00010EE101A0846FCF76AF941EC1F0BB0EE1C
:1043E0004F0AF0EE6F0A01F0E7FCB0EE40EAF0EEA3
:1043F00060EA51EC1E0B81F0004141EC1D0B9FED7A
:10440000570B53EC102BFBF7CAFF41EC1C0B9FED35
:10441000550B53EC102BFCF769F800E074E041EC0D
:104420001B0B9FED520B53EC102BFCF75FF841EC8C
:104430001A0B9FED500B53EC102BFCF757F841EC87
:10444000190BFCF777F93749C8610021354800F0AE
:1044500025FC4A4890ED004ADFED494A34EEC44A53
:10446000B1EE444AF0EE443A464890ED004ADFEDA2
:10447000444A34EEC44AB1EE444AB0EE443A3F48AE
:1044800090ED004ADFED3E4A34EEC44AB1EE444AB4
:10449000F0EE442A3B4890ED004ADFED394A34EE15
:1044A000C44AB1EE444AB0EE442A344890ED004A82
:1044B000DFED334A34EEC44AB1EE444AF0EE441A1A
:1044C000304890ED004ADFED2E4A34EEC44AB1EE9A
:1044D000444AB0EE441A294890ED004ADFED284ADC
:1044E00034EEC44AB1EE444AF0EE440A254890ED59
:1044F000004ADFED234A34EEC44AB1EE444AB0EE3E
:10450000440A00F0D3F803E0064803F0D7F900BFEF
:1045100000BF012004F070FA65E6000014010020DD
:104520001801002050540020E8000020DC0000208A
:10453000150100200000C8420000A0420000F04227
:1045400000000000B81E853E00000C428FC2753E80
:10455000CDCCCC3D00007A44DB0FC9400000000008
:104560000000F03F000000000000E03F00000000FD
:104570000000004000000060FB210940F80000201E
:104580000000B442F400002070B504460D46124805
:104590001249086012484860002110488160C160DB
:1045A0004FF4806101610421416100218161C16199
:1045B000FEF780FF08B1FCF75FFD08480068C0689F
:1045C00040F0100005490968C8602A4621460348A2
:1045D000FFF782F870BD00000044004068560020DC
:1045E000A08601002DE9FC4107460C4615461E46F3
:1045F00000201349C86088604FF4007008600820EC
:104600000861380A8DF80000F8B28DF80100200A20
:104610008DF80200E0B28DF80300280A8DF804003E
:10462000E8B28DF80500300A8DF80600F0B28DF87A
:10463000070001236A460348FCF75BFFBDE8FC81E5
:1046400000560020605500202DE9FC4107460C462D
:1046500015461E4600201349C860886040F2FF10CE
:10466000086008200861380A8DF80000F8B28DF85B
:104670000100200A8DF80200E0B28DF80300280A3C
:104680008DF80400E8B28DF80500300A8DF80600B8
:10469000F0B28DF8070001236A460348FCF729FFB2
:1046A000BDE8FC81005600206055002000B52DEDCE
:1046B000088B89B0B0EE408AF0EE608AB0EE419A85
:1046C000F0EE619AF0EE42AAB0EE62AAB0EE43BA02
:1046D000F0EE63BA8DED018ACDED028A8DED039A7D
:1046E000CDED049ACDED05AA8DED06AA8DED07BAA4
:1046F000CDED08BA01A8FFF7D5F909B0BDEC088BDC
:1047000000BD000030B52DED108B87B0B0EE409AA3
:104710000446B0EE60EA94ED000AF0EE40EA94ED53
:10472000010A8DED050A94ED020A8DED040A94ED5F
:10473000030AF0EE408A94ED040AF0EE409A94EDFC
:10474000050A10EE105A19EE100AFBF7B0FF41EC03
:104750001D0B5F4890ED000B53EC102B51EC1D0B23
:10476000FBF7BEFE41EC1C0B9FED5A0B53EC102BDC
:10477000FBF7B0FF11D219EE100AFBF798FF41ECDE
:104780001C0B534890ED000B53EC102B51EC1C0B01
:10479000FBF7A6FE41EC100B01E09FED500B8DEDF9
:1047A000020B2846FBF783FFCDE900019DED020BCC
:1047B00053EC102B9DED000B51EC100BFBF796FE0C
:1047C00041EC1A0B47480068FBF771FF41EC1B0BEB
:1047D00053EC1A2BFBF7E3FD41EC1F0BFBF7AAFF91
:1047E0004049086019EE100AFBF761FF384A03C21E
:1047F0003C4890ED000A30EE0E0A10EE101A084602
:10480000FBF755FF41EC1B0B9FED371BB0EE4B0A3E
:10481000F0EE6B0A01F034FBB0EE40AAF0EE60AAB5
:1048200051EC1A0BFBF786FF08EE100AB4EEE88A8B
:10483000F1EE10FA20D8F0EE000A89EEA00AC8EED8
:10484000280A10EEA90A84ED090A9FED290A28EE2C
:10485000000AC0EE280AB0EE60AAB0EE4A0AFBF7E2
:104860000FFDDDED040AB1EE601AF0EE6E0A41EEC6
:10487000000AC4ED0A0A26E038EE680AF7EE000ADC
:1048800070EEE80A80EE201AB0EE41AAF0EE000ABF
:1048900089EEA00AF1EE4A0A00EEA90A84ED090A9F
:1048A000DFED130A6AEE200AB0EE600AFBF7E8FCBF
:1048B000F0EE400A9DED050AB0EE6E1A00EE201AE9
:1048C00084ED0A1A00BF07B0BDEC108B30BD0000AC
:1048D000A8030020000000000000E03F00000000EE
:1048E00000000000A0030020000000000000F03FD6
:1048F000DB0F494010B52DED028BB0EE408A074822
:1049000080ED008A0520064908704FF47A71054849
:1049100003F088FEBDEC028B10BD0000C403002034
:1049200014010020A05400201CB5044603F046FFEB
:104930000E48112100234FF40072CDE900100CA1A4
:10494000114804F09FFD11480A2100234FF48072A2
:10495000CDE900100EA1114804F094FD1048006844
:1049600004F078F803F054FF1CBD0000B8030020E9
:10497000506F736974696F6E436F6E74726F6C54AD
:104980006872656164000000B1410008C003002046
:104990004465746563745461736B0000850F00088F
:1049A000BC03002000B52DED028B81B02C480078AF
:1049B000052803D101B0BDEC028B00BD284800786A
:1049C0000D2825D02648007810B302F073FFB0F907
:1049D000020040F2762188421ADD04F0F1FD0099D0
:1049E000401AB0F57A7F13D904F0EAFD009004F084
:1049F000E7FD00EE100AB8EE400ADFED1A0A80EE7D
:104A0000201AB0EE418AB0EE480AFFF773FFD1E7F3
:104A100002F050FFC07A012803D00020FCF71EFBF3
:104A200018B10D200E49087017E002F043FF807A9C
:104A3000022803D100200A4908700EE002F03AFF74
:104A4000807A032802D10649087006E002F032FF9E
:104A5000807A012801D10249087000BFAAE700004E
:104A60001401002000007A4410B500BF502080F3EC
:104A70001188BFF34F8FBFF36F8F00BF04F0A6FD07
:104A800018B14FF080500449086000BF002080F347
:104A9000118800BF10BD000004ED00E000B593B028
:104AA000302107A8FBF770FC142102A8FBF76CFC6F
:104AB00000BF002001902448006840F08050224947
:104AC00008600846006800F08050019000BF00BFF9
:104AD00000BF002001901D48006840F480401B4941
:104AE00008600846006800F48040019000BF00BFE5
:104AF000012007904FF4A020089002200D9041055E
:104B00000E9104210F91A8211091022111910421ED
:104B1000129107A8FEF782F808B1FCF7ADFA0F2052
:104B2000029002200390002004904FF4A0500590C2
:104B30004FF480500690052102A8FDF70FFF08B141
:104B4000FCF79AFA13B000BD4038024000700040F4
:104B50001448006840F47000124908601248006868
:104B600040F001001049086000200F49083108603A
:104B70000D4800680D4908400B4908600C48091DA4
:104B80000860081F006820F48020091F08600020CA
:104B900005490C3108604FF0006002498039086017
:104BA0007047000088ED00E000380240FFFFF6FE8D
:104BB0001030002410B50248FEF7FBFA10BD0000CB
:104BC000CC04002010B50268294B98420ED0B0F1F9
:104BD000804F0BD0274B984208D0274B984205D0E6
:104BE000264B984202D0264B984203D122F0700205
:104BF0004B681A431E4B984220D0B0F1804F1DD015
:104C00001C4B98421AD01C4B984217D01B4B984211
:104C100014D01B4B984211D01A4B98420ED01A4B0D
:104C200098420BD0194B984208D0194B984205D0A6
:104C3000184B984202D0184B984203D122F440728C
:104C4000CB681A4322F080034C6943EA04020260F5
:104C50008B68C3620B688362054B984202D0084B95
:104C6000984201D10B6903630123436110BD000029
:104C7000000001400004004000080040000C00401B
:104C80000004014000400140004401400048014050
:104C900000180040001C00400020004031B10129F4
:104CA00039D002296CD0032934D19EE090ED070A57
:104CB000DFED690A20EE200ADFED680A80EE201A97
:104CC0009FED670A30EE410AD0ED080A9FED621AA7
:104CD00060EE810A9FED611AC0EE811A30EE610A22
:104CE000604A82ED000A90ED080ADFED5B0A20EED3
:104CF000200A9FED5A1AC0EE010A9FED570AB0EE46
:104D0000001A01EE600AD2ED000A30EE600A564A3F
:104D100082ED000A9EE090ED070ADFED4F0A20EEDB
:104D2000200ADFED4E0A80EE201A9FED4D0A30EE8C
:104D3000410AD0ED080A9FED481A60EE810A9FED06
:104D4000471AC0EE811A30EE610A484A82ED000A25
:104D500090ED080ADFED400A20EE200A9FED3F1A91
:104D6000C0EE010A9FED3C0AB0EE001A01EE600AA7
:104D7000D2ED000A30EE600A3D4A82ED000A69E099
:104D800090ED070ADFED340A20EE200A9FED331A7A
:104D9000C0EE010A9FED320A30EE600AD0ED080A3B
:104DA0009FED2D1A60EE810A9FED2C1AC0EE811A3C
:104DB00030EE610A2F4A82ED000A90ED080ADFED1D
:104DC000260A20EE200A9FED251AC0EE010A9FED6B
:104DD000220AB0EE001A01EE600AD2ED000A30EEAF
:104DE000600A254A82ED000A34E090ED070ADFED03
:104DF0001A0A20EE200ADFED190A80EE201A9FED34
:104E0000180A30EE410AD0ED080A9FED131A60EE41
:104E1000810A9FED121AC0EE811A30EE610A174A1C
:104E200082ED000A90ED080ADFED0B0A20EE200A61
:104E30009FED0A1AC0EE010A9FED070AB0EE001AB4
:104E400001EE600AD2ED000A30EE600A0C4A82EDF3
:104E5000000A00BF00BF704700003443DB0F494029
:104E60000000B442F8000020F400002000010020FF
:104E7000FC00002008010020040100201001002097
:104E80000C01002070B50546AC6B0020E085E08485
:104E90002046FEF768FA70BD70B506460025B46B73
:104EA00020684069C0F3C01594F83900212805D165
:104EB00025B10020E084204600F060F820684069B9
:104EC000C0F3801594F83A00222805D125B10020BE
:104ED000E085204600F032F8E06B40F01000E0631F
:104EE0002046FEF740FA70BD70B50546AC6B2868E9
:104EF000006800F48070B0B90020E0852068C068C8
:104F000020F480702168C8602068406920F00100AA
:104F1000216848612068406920F0400021684861AC
:104F2000202084F83A002046FEF738FC70BD70B5AA
:104F30000446A56B2846FEF732FC70BD0168C968BF
:104F400021F490710268D1600168496921F0010182
:104F500002685161202180F83A10704710B504466C
:104F60002068C06820F040002168C860202084F8D4
:104F700039002046FEF714FC002010BD0168C96806
:104F800021F0C0010268D160202180F839107047FB
:104F900070B5044694F83A0022284AD1A068B0F5CA
:104FA000805F13D1A56A206940B920684068C0F3CA
:104FB00008002880A06A801CA06219E02068406870
:104FC000C0B22880A06A401CA06211E0206938B9F4
:104FD00020684068C1B2A26A501CA062117007E04C
:104FE0002068406800F07F01A26A501CA062117026
:104FF000E08D401E80B2E085C8B92068C06820F00E
:1050000020002168C8602068C06820F48070216892
:10501000C8602068406920F00100216848612020B4
:1050200084F83A002046FEF7B9FB002070BD00204E
:10503000FCE70220FAE700002DE9F0410446206871
:10504000006920F44050E168084321680861216943
:10505000A068084361690843E16940EA01052068E6
:10506000C06849F20C61884328432168C860206801
:10507000406920F44070A169084321684861E069F3
:10508000B0F5004F7ED1C4492068884203D0C3499F
:10509000206888425DD1FDF759FD00EBC00101EBAE
:1050A000001061684900B0FBF1F06421B0FBF1F041
:1050B0000601FDF74BFD00EBC00101EB001061683C
:1050C0004900B0FBF1F7FDF741FD00EBC00101EB3A
:1050D000001061684900B0FBF1F06421B0FBF1F011
:1050E00000EBC00101EB0010A7EB8000322101EBC7
:1050F000C0006421B0FBF1F000F0F80006EB4006C0
:10510000FDF724FD00EBC00101EB001061684900D0
:10511000B0FBF1F7FDF71AFD00EBC00101EB001049
:1051200061684900B0FBF1F06421B0FBF1F000EBE5
:10513000C00101EB0010A7EB8000322101EBC000A1
:105140006421B0FBF1F000F0070030442168886072
:1051500020E1FDF7EBFC00EBC00101EB0010616802
:105160004900B0FBF1F06421B0FBF1F00601FDF75E
:10517000DDFC00EBC00101EB001061684900B0FBF1
:10518000F1F700E045E0FDF7D1FC00EBC00101EBD9
:10519000001061684900B0FBF1F06421B0FBF1F050
:1051A00000EBC00101EB0010A7EB8000322101EB06
:1051B000C0006421B0FBF1F000F0F80006EB4006FF
:1051C000FDF7B4FC00EBC00101EB00106168490081
:1051D000B0FBF1F7FDF7AAFC00EBC00101EB0010FA
:1051E00061684900B0FBF1F06421B0FBF1F000EB25
:1051F000C00101EB0010A7EB8000322101EBC000E1
:105200006421B0FBF1F000F00700304421688860B1
:10521000C0E061492068884203D060492068884224
:105220005CD1FDF793FC00EBC00101EB001061685D
:105230008900B0FBF1F6FDF789FC00EBC00101EB42
:10524000001061688900B0FBF1F06421B0FBF1F05F
:1052500000EBC00101EB0010A6EB8000322101EB56
:1052600000106421B0FBF1F000F0F006FDF76EFCD9
:1052700000EBC00101EB001061688900B0FBF1F0A8
:105280006421B0FBF1F006EB0016FDF75FFC00EBCC
:10529000C00101EB001061688900B0FBF1F7FDF778
:1052A00055FC00EBC00101EB001061688900B0FB08
:1052B000F1F06421B0FBF1F000EBC00101EB001054
:1052C000A7EB8000322101EB00106421B0FBF1F06C
:1052D00000F00F003044216888605BE0FDF726FC99
:1052E00000EBC00101EB001061688900B0FBF1F632
:1052F000FDF71CFC00EBC00101EB001061688900A8
:10530000B0FBF1F06421B0FBF1F000EBC00101EB68
:105310000010A6EB8000322101EB00106421B0FBED
:10532000F1F000F0F006FDF701FC00EBC00101EB2D
:10533000001061688900B0FBF1F06421B0FBF1F06E
:1053400006EB0016FDF7F2FB00EBC00101EB0010CD
:1053500061688900B0FBF1F7FDF7E8FB00EBC001E5
:1053600001EB001061688900B0FBF1F06421B0FB33
:10537000F1F000EBC00101EB0010A7EB800032213F
:1053800001EB00106421B0FBF1F000F00F0030449D
:1053900021688860BDE8F0810010014000140140E0
:1053A000014691F8390021282CD18868B0F5805F3A
:1053B0000FD10A6A1088C0F308000B6858600869AA
:1053C00018B9086A801C086209E0086A401C086273
:1053D00005E00B6A581C086218780B685860C88C86
:1053E000401E80B2C88458B90868C06820F08000A8
:1053F0000B68D8600868C06840F040000B68D8604F
:10540000002070470220FCE710B50248FDF7ACFF12
:1054100010BD0000EC03002038B535480068006876
:1054200000F01000102862D131480068C06800F018
:10543000100000285BD02E480068006884B22C4819
:105440000068406884B2601E84B200BF00200090F3
:105450002748006800680090254800684068009070
:1054600000BF00BF22480068006820F010002049FB
:10547000096808601E48406B0068006820F0010061
:105480001B49496B096808601948406B006840680F
:105490001849088008460088C0F18000122806D10B
:1054A0000020FBF751FD14491448FBF79DFF8022B3
:1054B00011490F48FEF710F90D480068C06840F028
:1054C00010000B490968C8603D200D49C860802064
:1054D0000749496B096848600548406B00680068E7
:1054E00040F001000249496B0968086000BF38BDFF
:1054F00068560020C8030020C854002048550020EA
:105500000060024000BFFEE7014A024901F0FEBF11
:10551000A17500080800002003B40198410000981C
:1055200050EAC12018BF04204A0D18BF40F0010006
:1055300040F2FF72B2EB515F08BF40F00200012859
:1055400008BF052002B0704702480068C0F302207F
:10555000704700000CED00E010B5002804DB0A07DE
:10556000130E054A135406E00A07140E034A00F00E
:105570000F031B1FD45410BD00E400E018ED00E041
:10558000EFF311807047EFF305807047EFF3108061
:10559000704700000000000010B5B94A2DED020B65
:1055A0002DED0C8B82B00F9921F000409FEDB6CB12
:1055B00090422CDBA0F140530E9AA3F17F631A4373
:1055C0000FD0B349884202DC16D10E98A0B19DEDF0
:1055D0000E0B02B0BDEC0C8B02B0BDE8104001F028
:1055E0003BBF0029C1BF9FEDAC0B02B0BDEC0C8BE3
:1055F00002B0C8BF10BD16E0012001F081FF02B06B
:10560000BDEC0C8B02B0BDE8104001F039BFA44ADC
:105610009FEDA59B9FEDA6AB90425EDAA6499FED5C
:10562000A8CB814208DBB0EE4C0AF0EE6C0A02B067
:10563000BDEC0C8B02B010BD9DED0E0B53EC102B8E
:1056400051EC100BFAF752FF41EC180B9E48062163
:10565000B0EE480AF0EE680A784401F0D1FD53EC50
:10566000182B51EC100BFAF741FF41EC1B0B97483C
:10567000B0EE480AF0EE680A0421784401F0C0FD5B
:1056800053EC182B51EC100BFAF730FF53EC192B9D
:10569000FAF785FE41EC100B51EC1B0B53EC102B71
:1056A000FAF796FF41EC100B53EC102B9DED0E0B0F
:1056B00051EC100BFAF71AFF53EC1A2BFAF713FF01
:1056C0009DED0E1B53EC112BFAF70DFF53EC1C2B29
:1056D000FAF709FF41EC100BA9E79FED7D8B9FEDD9
:1056E0007EBB9DED0E0B002953EC192B51EC100BDA
:1056F00052DAFAF754FE53EC182BFAF7F7FE41ECA6
:10570000180B77480621B0EE480AF0EE680A784494
:1057100001F076FD53EC182B51EC100BFAF7E6FE76
:1057200041EC1D0B6F48B0EE480AF0EE680A042108
:10573000784401F065FD53EC182B51EC100BFAF78F
:10574000D5FE53EC192BFAF72AFE41EC190B51EC5C
:10575000180B02F073FF41EC180B53EC192B51ECB2
:105760001D0BFAF735FF53EC182BFAF7BFFE53EC7D
:105770001A2BFAF7B5FE41EC100B51EC180B53EC59
:10578000102BFAF70CFE53EC1B2BFAF7AFFE53EC81
:105790001C2BFAF7A8FE6DE0FAF7A5FE53EC182BC8
:1057A000FAF7A4FE41EC180B02F048FF41EC1A0B8B
:1057B00000208DED00AB00909DED000B51EC1A0B1D
:1057C00053EC102BFAF7EBFD9DED000B41EC1C0B9D
:1057D00053EC102B51EC100BFAF788FE53EC182BFE
:1057E000FAF781FE53EC1C2BFAF7F2FE41EC1C0B8E
:1057F0003D48B0EE480AF0EE680A0621784401F010
:10580000FFFC53EC182B51EC100BFAF76FFE41EC38
:105810001D0B3648B0EE480AF0EE680A04217844C1
:1058200001F0EEFC53EC182B51EC100BFAF75EFE76
:1058300053EC192BFAF7B3FD41EC100B51EC1D0B97
:1058400053EC102BFAF7C4FE53EC1A2BFAF74EFE6A
:1058500053EC1C2BFAF7A3FD41EC100B53EC102B6F
:105860009DED000B51EC100BFAF799FD53EC1B2B3F
:10587000FAF73CFE41EC100BD9E6000000000000F6
:105880000000F03F00000000182D4454FB210940A7
:105890000000F07F00000000000000000000000099
:1058A0000000E03F00000000000000000000F03FAA
:1058B000075C143326A6913C0000603C0000000009
:1058C000182D4454FB21F93F2C4C00003A4C0000A9
:1058D000000000000000E03F000000000000004069
:1058E000764B0000844B0000884A0000964A000076
:1058F00070B59B482DED020B2DED068B079D25F015
:105900000044A04218DC9748844202DC0AD1069881
:1059100040B19DED060BBDEC068B02B0BDE87040BA
:1059200001F09ABD002DCCBF9FED8F0B9FED900B2A
:10593000BDEC068B02B070BD8F48A04215DD8F48CC
:10594000A042D8BF4FF0FF3458DD9DED060B51EC5F
:10595000100BFFF7E1FD042808BF01F0B1FD9DED3C
:10596000060BBDEC068B02B070BD9DED060B51EC35
:10597000100B01F009FECDE9060181489FED828BF5
:10598000A0423CDD8248A0421FDD00249FED82AB97
:105990009DED060B53EC1A2B51EC100BFAF7FFFCA4
:1059A0009DED060B41EC190B53EC1A2B51EC100B2F
:1059B000FAF79CFD53EC182BFAF792FD53EC192BD8
:1059C000FAF706FECDE9060149E09DED060B01243C
:1059D00053EC182B51EC100BFAF7E1FC9DED060B84
:1059E00041EC190B53EC182B51EC100BFAF778FD26
:1059F00053EC192BFAF7ECFDCDE906012FE06848CE
:105A0000A0421FDD02249FED689B9DED060B53EC29
:105A1000192B51EC100BFAF769FD53EC182BFAF720
:105A2000BEFC9DED060B41EC180B53EC192B51EC11
:105A3000100BFAF755FD53EC182BFAF7C9FDCDE919
:105A400006010CE09DED060B032453EC102B9FED9B
:105A5000580B51EC100BFAF7BBFDCDE906019DED9B
:105A6000060B53EC102B51EC100BFAF73FFD41ECF9
:105A7000180B53EC182BFAF739FD41EC190B4E4873
:105A80000621B0EE490AF0EE690A784401F0B8FB4D
:105A900053EC182B51EC100BFAF728FD41EC180BC6
:105AA0004648B0EE490AF0EE690A0521784401F053
:105AB000A7FB53EC192B51EC100BFAF717FD41EC37
:105AC000100B51EC180B53EC102B002C0EDAFAF7DC
:105AD00066FC9DED061B53EC112BFAF707FD9DEDBF
